{
  "address": "0x87747219B068049fe8225ad37DB6291b1ABd962B",
  "abi": [
    {
      "inputs": [
        {
          "internalType": "string",
          "name": "_name",
          "type": "string"
        },
        {
          "internalType": "string",
          "name": "_symbol",
          "type": "string"
        },
        {
          "internalType": "uint256",
          "name": "_initialSupply",
          "type": "uint256"
        }
      ],
      "stateMutability": "nonpayable",
      "type": "constructor"
    },
    {
      "inputs": [
        {
          "internalType": "address",
          "name": "spender",
          "type": "address"
        },
        {
          "internalType": "uint256",
          "name": "allowance",
          "type": "uint256"
        },
        {
          "internalType": "uint256",
          "name": "needed",
          "type": "uint256"
        }
      ],
      "name": "ERC20InsufficientAllowance",
      "type": "error"
    },
    {
      "inputs": [
        {
          "internalType": "address",
          "name": "sender",
          "type": "address"
        },
        {
          "internalType": "uint256",
          "name": "balance",
          "type": "uint256"
        },
        {
          "internalType": "uint256",
          "name": "needed",
          "type": "uint256"
        }
      ],
      "name": "ERC20InsufficientBalance",
      "type": "error"
    },
    {
      "inputs": [
        {
          "internalType": "address",
          "name": "approver",
          "type": "address"
        }
      ],
      "name": "ERC20InvalidApprover",
      "type": "error"
    },
    {
      "inputs": [
        {
          "internalType": "address",
          "name": "receiver",
          "type": "address"
        }
      ],
      "name": "ERC20InvalidReceiver",
      "type": "error"
    },
    {
      "inputs": [
        {
          "internalType": "address",
          "name": "sender",
          "type": "address"
        }
      ],
      "name": "ERC20InvalidSender",
      "type": "error"
    },
    {
      "inputs": [
        {
          "internalType": "address",
          "name": "spender",
          "type": "address"
        }
      ],
      "name": "ERC20InvalidSpender",
      "type": "error"
    },
    {
      "anonymous": false,
      "inputs": [
        {
          "indexed": true,
          "internalType": "address",
          "name": "owner",
          "type": "address"
        },
        {
          "indexed": true,
          "internalType": "address",
          "name": "spender",
          "type": "address"
        },
        {
          "indexed": false,
          "internalType": "uint256",
          "name": "value",
          "type": "uint256"
        }
      ],
      "name": "Approval",
      "type": "event"
    },
    {
      "anonymous": false,
      "inputs": [
        {
          "indexed": true,
          "internalType": "address",
          "name": "from",
          "type": "address"
        },
        {
          "indexed": false,
          "internalType": "uint256",
          "name": "amount",
          "type": "uint256"
        }
      ],
      "name": "Burn",
      "type": "event"
    },
    {
      "anonymous": false,
      "inputs": [
        {
          "indexed": true,
          "internalType": "address",
          "name": "to",
          "type": "address"
        },
        {
          "indexed": false,
          "internalType": "uint256",
          "name": "amount",
          "type": "uint256"
        },
        {
          "components": [
            {
              "internalType": "string",
              "name": "name",
              "type": "string"
            },
            {
              "internalType": "string",
              "name": "direction",
              "type": "string"
            },
            {
              "internalType": "uint256",
              "name": "amount",
              "type": "uint256"
            },
            {
              "internalType": "uint256",
              "name": "amountInterest",
              "type": "uint256"
            },
            {
              "internalType": "uint256",
              "name": "grossAnnualRent",
              "type": "uint256"
            },
            {
              "internalType": "uint256",
              "name": "netAmountRent",
              "type": "uint256"
            },
            {
              "internalType": "uint256",
              "name": "interestPayment",
              "type": "uint256"
            },
            {
              "internalType": "uint256",
              "name": "numberOfTokens",
              "type": "uint256"
            },
            {
              "internalType": "uint256",
              "name": "tokenPrice",
              "type": "uint256"
            },
            {
              "internalType": "uint256",
              "name": "minInvestment",
              "type": "uint256"
            },
            {
              "internalType": "uint256",
              "name": "homeInterest",
              "type": "uint256"
            },
            {
              "internalType": "uint256",
              "name": "deadline",
              "type": "uint256"
            }
          ],
          "indexed": false,
          "internalType": "struct AssetDetails",
          "name": "assetInfo",
          "type": "tuple"
        }
      ],
      "name": "Mint",
      "type": "event"
    },
    {
      "anonymous": false,
      "inputs": [
        {
          "indexed": true,
          "internalType": "address",
          "name": "from",
          "type": "address"
        },
        {
          "indexed": true,
          "internalType": "address",
          "name": "to",
          "type": "address"
        },
        {
          "indexed": false,
          "internalType": "uint256",
          "name": "value",
          "type": "uint256"
        }
      ],
      "name": "Transfer",
      "type": "event"
    },
    {
      "inputs": [
        {
          "internalType": "string",
          "name": "_query",
          "type": "string"
        },
        {
          "internalType": "uint256",
          "name": "_tokensPurchase",
          "type": "uint256"
        },
        {
          "internalType": "address",
          "name": "_userAddress",
          "type": "address"
        },
        {
          "internalType": "string",
          "name": "_userEmail",
          "type": "string"
        }
      ],
      "name": "addInvestments",
      "outputs": [],
      "stateMutability": "nonpayable",
      "type": "function"
    },
    {
      "inputs": [
        {
          "internalType": "address",
          "name": "owner",
          "type": "address"
        },
        {
          "internalType": "address",
          "name": "spender",
          "type": "address"
        }
      ],
      "name": "allowance",
      "outputs": [
        {
          "internalType": "uint256",
          "name": "",
          "type": "uint256"
        }
      ],
      "stateMutability": "view",
      "type": "function"
    },
    {
      "inputs": [
        {
          "internalType": "address",
          "name": "spender",
          "type": "address"
        },
        {
          "internalType": "uint256",
          "name": "value",
          "type": "uint256"
        }
      ],
      "name": "approve",
      "outputs": [
        {
          "internalType": "bool",
          "name": "",
          "type": "bool"
        }
      ],
      "stateMutability": "nonpayable",
      "type": "function"
    },
    {
      "inputs": [
        {
          "internalType": "string",
          "name": "",
          "type": "string"
        }
      ],
      "name": "assetDetails",
      "outputs": [
        {
          "internalType": "string",
          "name": "name",
          "type": "string"
        },
        {
          "internalType": "string",
          "name": "direction",
          "type": "string"
        },
        {
          "internalType": "uint256",
          "name": "amount",
          "type": "uint256"
        },
        {
          "internalType": "uint256",
          "name": "amountInterest",
          "type": "uint256"
        },
        {
          "internalType": "uint256",
          "name": "grossAnnualRent",
          "type": "uint256"
        },
        {
          "internalType": "uint256",
          "name": "netAmountRent",
          "type": "uint256"
        },
        {
          "internalType": "uint256",
          "name": "interestPayment",
          "type": "uint256"
        },
        {
          "internalType": "uint256",
          "name": "numberOfTokens",
          "type": "uint256"
        },
        {
          "internalType": "uint256",
          "name": "tokenPrice",
          "type": "uint256"
        },
        {
          "internalType": "uint256",
          "name": "minInvestment",
          "type": "uint256"
        },
        {
          "internalType": "uint256",
          "name": "homeInterest",
          "type": "uint256"
        },
        {
          "internalType": "uint256",
          "name": "deadline",
          "type": "uint256"
        }
      ],
      "stateMutability": "view",
      "type": "function"
    },
    {
      "inputs": [
        {
          "internalType": "uint256",
          "name": "",
          "type": "uint256"
        }
      ],
      "name": "assetIds",
      "outputs": [
        {
          "internalType": "string",
          "name": "",
          "type": "string"
        }
      ],
      "stateMutability": "view",
      "type": "function"
    },
    {
      "inputs": [
        {
          "internalType": "address",
          "name": "account",
          "type": "address"
        }
      ],
      "name": "balanceOf",
      "outputs": [
        {
          "internalType": "uint256",
          "name": "",
          "type": "uint256"
        }
      ],
      "stateMutability": "view",
      "type": "function"
    },
    {
      "inputs": [
        {
          "internalType": "address",
          "name": "from",
          "type": "address"
        },
        {
          "internalType": "uint256",
          "name": "amount",
          "type": "uint256"
        },
        {
          "internalType": "string",
          "name": "_query",
          "type": "string"
        }
      ],
      "name": "burn",
      "outputs": [],
      "stateMutability": "nonpayable",
      "type": "function"
    },
    {
      "inputs": [],
      "name": "decimals",
      "outputs": [
        {
          "internalType": "uint8",
          "name": "",
          "type": "uint8"
        }
      ],
      "stateMutability": "view",
      "type": "function"
    },
    {
      "inputs": [
        {
          "internalType": "string",
          "name": "",
          "type": "string"
        }
      ],
      "name": "details",
      "outputs": [
        {
          "internalType": "string",
          "name": "secMarket",
          "type": "string"
        },
        {
          "internalType": "string",
          "name": "currency",
          "type": "string"
        },
        {
          "internalType": "string",
          "name": "neighood",
          "type": "string"
        },
        {
          "internalType": "string",
          "name": "yoc",
          "type": "string"
        },
        {
          "internalType": "string",
          "name": "elevator",
          "type": "string"
        },
        {
          "internalType": "string",
          "name": "buildedSurface",
          "type": "string"
        },
        {
          "internalType": "string",
          "name": "bedrooms",
          "type": "string"
        },
        {
          "internalType": "string",
          "name": "bathrooms",
          "type": "string"
        },
        {
          "internalType": "string",
          "name": "isRented",
          "type": "string"
        },
        {
          "internalType": "string",
          "name": "tokenName",
          "type": "string"
        },
        {
          "internalType": "string",
          "name": "description",
          "type": "string"
        },
        {
          "internalType": "string",
          "name": "dateCreated",
          "type": "string"
        }
      ],
      "stateMutability": "view",
      "type": "function"
    },
    {
      "inputs": [],
      "name": "getAllAssetDetails",
      "outputs": [
        {
          "components": [
            {
              "internalType": "string",
              "name": "name",
              "type": "string"
            },
            {
              "internalType": "string",
              "name": "direction",
              "type": "string"
            },
            {
              "internalType": "uint256",
              "name": "amount",
              "type": "uint256"
            },
            {
              "internalType": "uint256",
              "name": "amountInterest",
              "type": "uint256"
            },
            {
              "internalType": "uint256",
              "name": "grossAnnualRent",
              "type": "uint256"
            },
            {
              "internalType": "uint256",
              "name": "netAmountRent",
              "type": "uint256"
            },
            {
              "internalType": "uint256",
              "name": "interestPayment",
              "type": "uint256"
            },
            {
              "internalType": "uint256",
              "name": "numberOfTokens",
              "type": "uint256"
            },
            {
              "internalType": "uint256",
              "name": "tokenPrice",
              "type": "uint256"
            },
            {
              "internalType": "uint256",
              "name": "minInvestment",
              "type": "uint256"
            },
            {
              "internalType": "uint256",
              "name": "homeInterest",
              "type": "uint256"
            },
            {
              "internalType": "uint256",
              "name": "deadline",
              "type": "uint256"
            }
          ],
          "internalType": "struct AssetDetails[]",
          "name": "",
          "type": "tuple[]"
        },
        {
          "components": [
            {
              "internalType": "string",
              "name": "secMarket",
              "type": "string"
            },
            {
              "internalType": "string",
              "name": "currency",
              "type": "string"
            },
            {
              "internalType": "string",
              "name": "neighood",
              "type": "string"
            },
            {
              "internalType": "string",
              "name": "yoc",
              "type": "string"
            },
            {
              "internalType": "string",
              "name": "elevator",
              "type": "string"
            },
            {
              "internalType": "string",
              "name": "buildedSurface",
              "type": "string"
            },
            {
              "internalType": "string",
              "name": "bedrooms",
              "type": "string"
            },
            {
              "internalType": "string",
              "name": "bathrooms",
              "type": "string"
            },
            {
              "internalType": "string",
              "name": "isRented",
              "type": "string"
            },
            {
              "internalType": "string",
              "name": "tokenName",
              "type": "string"
            },
            {
              "internalType": "string",
              "name": "description",
              "type": "string"
            },
            {
              "internalType": "string",
              "name": "dateCreated",
              "type": "string"
            }
          ],
          "internalType": "struct Details[]",
          "name": "",
          "type": "tuple[]"
        }
      ],
      "stateMutability": "view",
      "type": "function"
    },
    {
      "inputs": [
        {
          "internalType": "string",
          "name": "_query",
          "type": "string"
        }
      ],
      "name": "getAssetDetails",
      "outputs": [
        {
          "components": [
            {
              "internalType": "string",
              "name": "name",
              "type": "string"
            },
            {
              "internalType": "string",
              "name": "direction",
              "type": "string"
            },
            {
              "internalType": "uint256",
              "name": "amount",
              "type": "uint256"
            },
            {
              "internalType": "uint256",
              "name": "amountInterest",
              "type": "uint256"
            },
            {
              "internalType": "uint256",
              "name": "grossAnnualRent",
              "type": "uint256"
            },
            {
              "internalType": "uint256",
              "name": "netAmountRent",
              "type": "uint256"
            },
            {
              "internalType": "uint256",
              "name": "interestPayment",
              "type": "uint256"
            },
            {
              "internalType": "uint256",
              "name": "numberOfTokens",
              "type": "uint256"
            },
            {
              "internalType": "uint256",
              "name": "tokenPrice",
              "type": "uint256"
            },
            {
              "internalType": "uint256",
              "name": "minInvestment",
              "type": "uint256"
            },
            {
              "internalType": "uint256",
              "name": "homeInterest",
              "type": "uint256"
            },
            {
              "internalType": "uint256",
              "name": "deadline",
              "type": "uint256"
            }
          ],
          "internalType": "struct AssetDetails",
          "name": "",
          "type": "tuple"
        }
      ],
      "stateMutability": "view",
      "type": "function"
    },
    {
      "inputs": [],
      "name": "getInvestments",
      "outputs": [
        {
          "components": [
            {
              "internalType": "uint256",
              "name": "tokenPurchase",
              "type": "uint256"
            },
            {
              "internalType": "string",
              "name": "query",
              "type": "string"
            },
            {
              "internalType": "string",
              "name": "userEmail",
              "type": "string"
            },
            {
              "internalType": "address",
              "name": "userAddress",
              "type": "address"
            }
          ],
          "internalType": "struct InvestmentDetails[]",
          "name": "",
          "type": "tuple[]"
        }
      ],
      "stateMutability": "view",
      "type": "function"
    },
    {
      "inputs": [
        {
          "internalType": "uint256",
          "name": "",
          "type": "uint256"
        }
      ],
      "name": "investmentIds",
      "outputs": [
        {
          "internalType": "uint256",
          "name": "",
          "type": "uint256"
        }
      ],
      "stateMutability": "view",
      "type": "function"
    },
    {
      "inputs": [
        {
          "internalType": "uint256",
          "name": "",
          "type": "uint256"
        }
      ],
      "name": "investments",
      "outputs": [
        {
          "internalType": "uint256",
          "name": "tokenPurchase",
          "type": "uint256"
        },
        {
          "internalType": "string",
          "name": "query",
          "type": "string"
        },
        {
          "internalType": "string",
          "name": "userEmail",
          "type": "string"
        },
        {
          "internalType": "address",
          "name": "userAddress",
          "type": "address"
        }
      ],
      "stateMutability": "view",
      "type": "function"
    },
    {
      "inputs": [
        {
          "internalType": "uint256",
          "name": "",
          "type": "uint256"
        },
        {
          "internalType": "uint256",
          "name": "",
          "type": "uint256"
        }
      ],
      "name": "investmentsArray",
      "outputs": [
        {
          "internalType": "uint256",
          "name": "tokenPurchase",
          "type": "uint256"
        },
        {
          "internalType": "string",
          "name": "query",
          "type": "string"
        },
        {
          "internalType": "string",
          "name": "userEmail",
          "type": "string"
        },
        {
          "internalType": "address",
          "name": "userAddress",
          "type": "address"
        }
      ],
      "stateMutability": "view",
      "type": "function"
    },
    {
      "inputs": [
        {
          "components": [
            {
              "internalType": "string",
              "name": "name",
              "type": "string"
            },
            {
              "internalType": "string",
              "name": "direction",
              "type": "string"
            },
            {
              "internalType": "uint256",
              "name": "amount",
              "type": "uint256"
            },
            {
              "internalType": "uint256",
              "name": "amountInterest",
              "type": "uint256"
            },
            {
              "internalType": "uint256",
              "name": "grossAnnualRent",
              "type": "uint256"
            },
            {
              "internalType": "uint256",
              "name": "netAmountRent",
              "type": "uint256"
            },
            {
              "internalType": "uint256",
              "name": "interestPayment",
              "type": "uint256"
            },
            {
              "internalType": "uint256",
              "name": "numberOfTokens",
              "type": "uint256"
            },
            {
              "internalType": "uint256",
              "name": "tokenPrice",
              "type": "uint256"
            },
            {
              "internalType": "uint256",
              "name": "minInvestment",
              "type": "uint256"
            },
            {
              "internalType": "uint256",
              "name": "homeInterest",
              "type": "uint256"
            },
            {
              "internalType": "uint256",
              "name": "deadline",
              "type": "uint256"
            }
          ],
          "internalType": "struct AssetDetails",
          "name": "assetInfo",
          "type": "tuple"
        },
        {
          "components": [
            {
              "internalType": "string",
              "name": "secMarket",
              "type": "string"
            },
            {
              "internalType": "string",
              "name": "currency",
              "type": "string"
            },
            {
              "internalType": "string",
              "name": "neighood",
              "type": "string"
            },
            {
              "internalType": "string",
              "name": "yoc",
              "type": "string"
            },
            {
              "internalType": "string",
              "name": "elevator",
              "type": "string"
            },
            {
              "internalType": "string",
              "name": "buildedSurface",
              "type": "string"
            },
            {
              "internalType": "string",
              "name": "bedrooms",
              "type": "string"
            },
            {
              "internalType": "string",
              "name": "bathrooms",
              "type": "string"
            },
            {
              "internalType": "string",
              "name": "isRented",
              "type": "string"
            },
            {
              "internalType": "string",
              "name": "tokenName",
              "type": "string"
            },
            {
              "internalType": "string",
              "name": "description",
              "type": "string"
            },
            {
              "internalType": "string",
              "name": "dateCreated",
              "type": "string"
            }
          ],
          "internalType": "struct Details",
          "name": "assetInfo2",
          "type": "tuple"
        }
      ],
      "name": "mint",
      "outputs": [],
      "stateMutability": "nonpayable",
      "type": "function"
    },
    {
      "inputs": [],
      "name": "name",
      "outputs": [
        {
          "internalType": "string",
          "name": "",
          "type": "string"
        }
      ],
      "stateMutability": "view",
      "type": "function"
    },
    {
      "inputs": [],
      "name": "nextInvestmentId",
      "outputs": [
        {
          "internalType": "uint256",
          "name": "",
          "type": "uint256"
        }
      ],
      "stateMutability": "view",
      "type": "function"
    },
    {
      "inputs": [],
      "name": "symbol",
      "outputs": [
        {
          "internalType": "string",
          "name": "",
          "type": "string"
        }
      ],
      "stateMutability": "view",
      "type": "function"
    },
    {
      "inputs": [],
      "name": "tokenPriceInMatics",
      "outputs": [
        {
          "internalType": "uint256",
          "name": "",
          "type": "uint256"
        }
      ],
      "stateMutability": "view",
      "type": "function"
    },
    {
      "inputs": [],
      "name": "totalAssets",
      "outputs": [
        {
          "internalType": "uint256",
          "name": "",
          "type": "uint256"
        }
      ],
      "stateMutability": "view",
      "type": "function"
    },
    {
      "inputs": [],
      "name": "totalSupply",
      "outputs": [
        {
          "internalType": "uint256",
          "name": "",
          "type": "uint256"
        }
      ],
      "stateMutability": "view",
      "type": "function"
    },
    {
      "inputs": [
        {
          "internalType": "address",
          "name": "to",
          "type": "address"
        },
        {
          "internalType": "uint256",
          "name": "value",
          "type": "uint256"
        }
      ],
      "name": "transfer",
      "outputs": [
        {
          "internalType": "bool",
          "name": "",
          "type": "bool"
        }
      ],
      "stateMutability": "nonpayable",
      "type": "function"
    },
    {
      "inputs": [
        {
          "internalType": "address",
          "name": "from",
          "type": "address"
        },
        {
          "internalType": "address",
          "name": "to",
          "type": "address"
        },
        {
          "internalType": "uint256",
          "name": "value",
          "type": "uint256"
        }
      ],
      "name": "transferFrom",
      "outputs": [
        {
          "internalType": "bool",
          "name": "",
          "type": "bool"
        }
      ],
      "stateMutability": "nonpayable",
      "type": "function"
    }
  ],
  "transactionHash": "0x13366523a3ee4f9859411e340f5da035ecf301047252025717af3a2ea0ca6fd7",
  "args": [
    "phadda coin",
    "phadda",
    10000
  ],
  "numDeployments": 19,
  "solcInputHash": "92ff66e9d9290db54090cab1bcec3df3",
  "bytecode": "0x60c06040526001600a553480156200001657600080fd5b50604051620056883803806200568883398181016040528101906200003c9190620005a3565b828281600390816200004f91906200087e565b5080600490816200006191906200087e565b5050503373ffffffffffffffffffffffffffffffffffffffff1660808173ffffffffffffffffffffffffffffffffffffffff16815250507307f1a67ccdb4b2eecb6d4b4805b4962f4a2e73f973ffffffffffffffffffffffffffffffffffffffff1660a08173ffffffffffffffffffffffffffffffffffffffff168152505060006006819055506200010f33670de0b6b3a76400008362000103919062000994565b6200011860201b60201c565b50505062000ae7565b600073ffffffffffffffffffffffffffffffffffffffff168273ffffffffffffffffffffffffffffffffffffffff16036200018d5760006040517fec442f0500000000000000000000000000000000000000000000000000000000815260040162000184919062000a24565b60405180910390fd5b620001a160008383620001a560201b60201c565b5050565b600073ffffffffffffffffffffffffffffffffffffffff168373ffffffffffffffffffffffffffffffffffffffff1603620001fb578060026000828254620001ee919062000a41565b92505081905550620002d1565b60008060008573ffffffffffffffffffffffffffffffffffffffff1673ffffffffffffffffffffffffffffffffffffffff168152602001908152602001600020549050818110156200028a578381836040517fe450d38c000000000000000000000000000000000000000000000000000000008152600401620002819392919062000a8d565b60405180910390fd5b8181036000808673ffffffffffffffffffffffffffffffffffffffff1673ffffffffffffffffffffffffffffffffffffffff16815260200190815260200160002081905550505b600073ffffffffffffffffffffffffffffffffffffffff168273ffffffffffffffffffffffffffffffffffffffff16036200031c578060026000828254039250508190555062000369565b806000808473ffffffffffffffffffffffffffffffffffffffff1673ffffffffffffffffffffffffffffffffffffffff168152602001908152602001600020600082825401925050819055505b8173ffffffffffffffffffffffffffffffffffffffff168373ffffffffffffffffffffffffffffffffffffffff167fddf252ad1be2c89b69c2b068fc378daa952ba7f163c4a11628f55a4df523b3ef83604051620003c8919062000aca565b60405180910390a3505050565b6000604051905090565b600080fd5b600080fd5b600080fd5b600080fd5b6000601f19601f8301169050919050565b7f4e487b7100000000000000000000000000000000000000000000000000000000600052604160045260246000fd5b6200043e82620003f3565b810181811067ffffffffffffffff8211171562000460576200045f62000404565b5b80604052505050565b600062000475620003d5565b905062000483828262000433565b919050565b600067ffffffffffffffff821115620004a657620004a562000404565b5b620004b182620003f3565b9050602081019050919050565b60005b83811015620004de578082015181840152602081019050620004c1565b60008484015250505050565b600062000501620004fb8462000488565b62000469565b90508281526020810184848401111562000520576200051f620003ee565b5b6200052d848285620004be565b509392505050565b600082601f8301126200054d576200054c620003e9565b5b81516200055f848260208601620004ea565b91505092915050565b6000819050919050565b6200057d8162000568565b81146200058957600080fd5b50565b6000815190506200059d8162000572565b92915050565b600080600060608486031215620005bf57620005be620003df565b5b600084015167ffffffffffffffff811115620005e057620005df620003e4565b5b620005ee8682870162000535565b935050602084015167ffffffffffffffff811115620006125762000611620003e4565b5b620006208682870162000535565b925050604062000633868287016200058c565b9150509250925092565b600081519050919050565b7f4e487b7100000000000000000000000000000000000000000000000000000000600052602260045260246000fd5b600060028204905060018216806200069057607f821691505b602082108103620006a657620006a562000648565b5b50919050565b60008190508160005260206000209050919050565b60006020601f8301049050919050565b600082821b905092915050565b600060088302620007107fffffffffffffffffffffffffffffffffffffffffffffffffffffffffffffffff82620006d1565b6200071c8683620006d1565b95508019841693508086168417925050509392505050565b6000819050919050565b60006200075f62000759620007538462000568565b62000734565b62000568565b9050919050565b6000819050919050565b6200077b836200073e565b620007936200078a8262000766565b848454620006de565b825550505050565b600090565b620007aa6200079b565b620007b781848462000770565b505050565b5b81811015620007df57620007d3600082620007a0565b600181019050620007bd565b5050565b601f8211156200082e57620007f881620006ac565b6200080384620006c1565b8101602085101562000813578190505b6200082b6200082285620006c1565b830182620007bc565b50505b505050565b600082821c905092915050565b6000620008536000198460080262000833565b1980831691505092915050565b60006200086e838362000840565b9150826002028217905092915050565b62000889826200063d565b67ffffffffffffffff811115620008a557620008a462000404565b5b620008b1825462000677565b620008be828285620007e3565b600060209050601f831160018114620008f65760008415620008e1578287015190505b620008ed858262000860565b8655506200095d565b601f1984166200090686620006ac565b60005b82811015620009305784890151825560018201915060208501945060208101905062000909565b868310156200095057848901516200094c601f89168262000840565b8355505b6001600288020188555050505b505050505050565b7f4e487b7100000000000000000000000000000000000000000000000000000000600052601160045260246000fd5b6000620009a18262000568565b9150620009ae8362000568565b9250828202620009be8162000568565b91508282048414831517620009d857620009d762000965565b5b5092915050565b600073ffffffffffffffffffffffffffffffffffffffff82169050919050565b600062000a0c82620009df565b9050919050565b62000a1e81620009ff565b82525050565b600060208201905062000a3b600083018462000a13565b92915050565b600062000a4e8262000568565b915062000a5b8362000568565b925082820190508082111562000a765762000a7562000965565b5b92915050565b62000a878162000568565b82525050565b600060608201905062000aa4600083018662000a13565b62000ab3602083018562000a7c565b62000ac2604083018462000a7c565b949350505050565b600060208201905062000ae1600083018462000a7c565b92915050565b60805160a051614b5f62000b296000396000818161060b01528181610a140152610b0a0152600081816105b6015281816109bf0152610ab50152614b5f6000f3fe608060405234801561001057600080fd5b50600436106101585760003560e01c806370a08231116100c3578063d816d5ae1161007c578063d816d5ae14610430578063db6423941461044c578063dd62ed3e1461046a578063e83a25c51461049a578063f4155739146104ca578063fd345c8a146104e957610158565b806370a082311461032957806387541ed61461035957806395d89b4114610389578063a19556d4146103a7578063a9059cbb146103e2578063d624722d1461041257610158565b806323b872dd1161011557806323b872dd1461021f5780632e5f44511461024f578063313ce5671461028a5780635fe0debc146102a857806364c316bc146102db57806368fbe23e146102f957610158565b806301e1d1141461015d57806306fdde031461017b578063088f991914610199578063095ea7b3146101b557806315f570dc146101e557806318160ddd14610201575b600080fd5b61016561051c565b6040516101729190613267565b60405180910390f35b610183610522565b6040516101909190613312565b60405180910390f35b6101b360048036038101906101ae919061387f565b6105b4565b005b6101cf60048036038101906101ca9190613955565b6109bb565b6040516101dc91906139b0565b60405180910390f35b6101ff60048036038101906101fa91906139cb565b610ab3565b005b610209610c85565b6040516102169190613267565b60405180910390f35b61023960048036038101906102349190613a3a565b610c8f565b60405161024691906139b0565b60405180910390f35b61026960048036038101906102649190613a8d565b610cbe565b6040516102819c9b9a99989796959493929190613ad6565b60405180910390f35b610292610e44565b60405161029f9190613bba565b60405180910390f35b6102c260048036038101906102bd9190613bd5565b610e4d565b6040516102d29493929190613c24565b60405180910390f35b6102e3610fc6565b6040516102f09190613267565b60405180910390f35b610313600480360381019061030e9190613a8d565b610fcc565b6040516103209190613ddb565b60405180910390f35b610343600480360381019061033e9190613dfd565b61118d565b6040516103509190613267565b60405180910390f35b610373600480360381019061036e9190613e2a565b6111d5565b6040516103809190613312565b60405180910390f35b610391611281565b60405161039e9190613312565b60405180910390f35b6103c160048036038101906103bc9190613a8d565b611313565b6040516103d99c9b9a99989796959493929190613e57565b60405180910390f35b6103fc60048036038101906103f79190613955565b6119e9565b60405161040991906139b0565b60405180910390f35b61041a611a0c565b60405161042791906140a0565b60405180910390f35b61044a600480360381019061044591906140c2565b611c77565b005b610454611d92565b6040516104619190613267565b60405180910390f35b610484600480360381019061047f9190614161565b611d98565b6040516104919190613267565b60405180910390f35b6104b460048036038101906104af9190613e2a565b611e1f565b6040516104c19190613267565b60405180910390f35b6104d2611e43565b6040516104e0929190614581565b60405180910390f35b61050360048036038101906104fe9190613e2a565b6128cc565b6040516105139493929190613c24565b60405180910390f35b60065481565b606060038054610531906145e7565b80601f016020809104026020016040519081016040528092919081815260200182805461055d906145e7565b80156105aa5780601f1061057f576101008083540402835291602001916105aa565b820191906000526020600020905b81548152906001019060200180831161058d57829003601f168201915b5050505050905090565b7f000000000000000000000000000000000000000000000000000000000000000073ffffffffffffffffffffffffffffffffffffffff163373ffffffffffffffffffffffffffffffffffffffff16148061065957507f000000000000000000000000000000000000000000000000000000000000000073ffffffffffffffffffffffffffffffffffffffff163373ffffffffffffffffffffffffffffffffffffffff16145b610698576040517f08c379a000000000000000000000000000000000000000000000000000000000815260040161068f90614664565b60405180910390fd5b60008260000151905060008360200151905060006040518060400160405280600181526020017f3a00000000000000000000000000000000000000000000000000000000000000815250905060008382846040516020016106fb939291906146cb565b60405160208183030381529060405290506000819050600160066000828254610724919061472b565b92505081905550866101000151600581905550610745338860e00151612a2c565b86600782604051610756919061479b565b90815260200160405180910390206000820151816000019081610779919061495e565b50602082015181600101908161078f919061495e565b5060408201518160020155606082015181600301556080820151816004015560a0820151816005015560c0820151816006015560e082015181600701556101008201518160080155610120820151816009015561014082015181600a015561016082015181600b01559050508560088260405161080c919061479b565b9081526020016040518091039020600082015181600001908161082f919061495e565b506020820151816001019081610845919061495e565b50604082015181600201908161085b919061495e565b506060820151816003019081610871919061495e565b506080820151816004019081610887919061495e565b5060a082015181600501908161089d919061495e565b5060c08201518160060190816108b3919061495e565b5060e08201518160070190816108c9919061495e565b506101008201518160080190816108e0919061495e565b506101208201518160090190816108f7919061495e565b5061014082015181600a01908161090e919061495e565b5061016082015181600b019081610925919061495e565b50905050600c8190806001815401808255809150506001900390600052602060002001600090919091909150908161095d919061495e565b503373ffffffffffffffffffffffffffffffffffffffff167f74bf866b31634e4aab0772ba706bad039b88deb1649eb0c95bd0687ed902d84e8860e00151896040516109aa929190614a30565b60405180910390a250505050505050565b60007f000000000000000000000000000000000000000000000000000000000000000073ffffffffffffffffffffffffffffffffffffffff163373ffffffffffffffffffffffffffffffffffffffff161480610a6257507f000000000000000000000000000000000000000000000000000000000000000073ffffffffffffffffffffffffffffffffffffffff163373ffffffffffffffffffffffffffffffffffffffff16145b610aa1576040517f08c379a0000000000000000000000000000000000000000000000000000000008152600401610a9890614664565b60405180910390fd5b610aab8383612aae565b905092915050565b7f000000000000000000000000000000000000000000000000000000000000000073ffffffffffffffffffffffffffffffffffffffff163373ffffffffffffffffffffffffffffffffffffffff161480610b5857507f000000000000000000000000000000000000000000000000000000000000000073ffffffffffffffffffffffffffffffffffffffff163373ffffffffffffffffffffffffffffffffffffffff16145b610b97576040517f08c379a0000000000000000000000000000000000000000000000000000000008152600401610b8e90614664565b60405180910390fd5b610ba18383612ad1565b600781604051610bb1919061479b565b908152602001604051809103902060008082016000610bd091906130f1565b600182016000610be091906130f1565b60028201600090556003820160009055600482016000905560058201600090556006820160009055600782016000905560088201600090556009820160009055600a820160009055600b82016000905550508273ffffffffffffffffffffffffffffffffffffffff167fcc16f5dbb4873280815c1ee09dbd06736cffcc184412cf7a71a0fdb75d397ca583604051610c789190613267565b60405180910390a2505050565b6000600254905090565b600080610c9a612b53565b9050610ca7858285612b5b565b610cb2858585612bef565b60019150509392505050565b600781805160208101820180518482526020830160208501208183528095505050505050600091509050806000018054610cf7906145e7565b80601f0160208091040260200160405190810160405280929190818152602001828054610d23906145e7565b8015610d705780601f10610d4557610100808354040283529160200191610d70565b820191906000526020600020905b815481529060010190602001808311610d5357829003601f168201915b505050505090806001018054610d85906145e7565b80601f0160208091040260200160405190810160405280929190818152602001828054610db1906145e7565b8015610dfe5780601f10610dd357610100808354040283529160200191610dfe565b820191906000526020600020905b815481529060010190602001808311610de157829003601f168201915b50505050509080600201549080600301549080600401549080600501549080600601549080600701549080600801549080600901549080600a01549080600b015490508c565b60006012905090565b600b8281548110610e5d57600080fd5b9060005260206000200160205280600052604060002060009150915050806000015490806001018054610e8f906145e7565b80601f0160208091040260200160405190810160405280929190818152602001828054610ebb906145e7565b8015610f085780601f10610edd57610100808354040283529160200191610f08565b820191906000526020600020905b815481529060010190602001808311610eeb57829003601f168201915b505050505090806002018054610f1d906145e7565b80601f0160208091040260200160405190810160405280929190818152602001828054610f49906145e7565b8015610f965780601f10610f6b57610100808354040283529160200191610f96565b820191906000526020600020905b815481529060010190602001808311610f7957829003601f168201915b5050505050908060030160009054906101000a900473ffffffffffffffffffffffffffffffffffffffff16905084565b60055481565b610fd4613131565b600782604051610fe4919061479b565b90815260200160405180910390206040518061018001604052908160008201805461100e906145e7565b80601f016020809104026020016040519081016040528092919081815260200182805461103a906145e7565b80156110875780601f1061105c57610100808354040283529160200191611087565b820191906000526020600020905b81548152906001019060200180831161106a57829003601f168201915b505050505081526020016001820180546110a0906145e7565b80601f01602080910402602001604051908101604052809291908181526020018280546110cc906145e7565b80156111195780601f106110ee57610100808354040283529160200191611119565b820191906000526020600020905b8154815290600101906020018083116110fc57829003601f168201915b505050505081526020016002820154815260200160038201548152602001600482015481526020016005820154815260200160068201548152602001600782015481526020016008820154815260200160098201548152602001600a8201548152602001600b820154815250509050919050565b60008060008373ffffffffffffffffffffffffffffffffffffffff1673ffffffffffffffffffffffffffffffffffffffff168152602001908152602001600020549050919050565b600c81815481106111e557600080fd5b906000526020600020016000915090508054611200906145e7565b80601f016020809104026020016040519081016040528092919081815260200182805461122c906145e7565b80156112795780601f1061124e57610100808354040283529160200191611279565b820191906000526020600020905b81548152906001019060200180831161125c57829003601f168201915b505050505081565b606060048054611290906145e7565b80601f01602080910402602001604051908101604052809291908181526020018280546112bc906145e7565b80156113095780601f106112de57610100808354040283529160200191611309565b820191906000526020600020905b8154815290600101906020018083116112ec57829003601f168201915b5050505050905090565b60088180516020810182018051848252602083016020850120818352809550505050505060009150905080600001805461134c906145e7565b80601f0160208091040260200160405190810160405280929190818152602001828054611378906145e7565b80156113c55780601f1061139a576101008083540402835291602001916113c5565b820191906000526020600020905b8154815290600101906020018083116113a857829003601f168201915b5050505050908060010180546113da906145e7565b80601f0160208091040260200160405190810160405280929190818152602001828054611406906145e7565b80156114535780601f1061142857610100808354040283529160200191611453565b820191906000526020600020905b81548152906001019060200180831161143657829003601f168201915b505050505090806002018054611468906145e7565b80601f0160208091040260200160405190810160405280929190818152602001828054611494906145e7565b80156114e15780601f106114b6576101008083540402835291602001916114e1565b820191906000526020600020905b8154815290600101906020018083116114c457829003601f168201915b5050505050908060030180546114f6906145e7565b80601f0160208091040260200160405190810160405280929190818152602001828054611522906145e7565b801561156f5780601f106115445761010080835404028352916020019161156f565b820191906000526020600020905b81548152906001019060200180831161155257829003601f168201915b505050505090806004018054611584906145e7565b80601f01602080910402602001604051908101604052809291908181526020018280546115b0906145e7565b80156115fd5780601f106115d2576101008083540402835291602001916115fd565b820191906000526020600020905b8154815290600101906020018083116115e057829003601f168201915b505050505090806005018054611612906145e7565b80601f016020809104026020016040519081016040528092919081815260200182805461163e906145e7565b801561168b5780601f106116605761010080835404028352916020019161168b565b820191906000526020600020905b81548152906001019060200180831161166e57829003601f168201915b5050505050908060060180546116a0906145e7565b80601f01602080910402602001604051908101604052809291908181526020018280546116cc906145e7565b80156117195780601f106116ee57610100808354040283529160200191611719565b820191906000526020600020905b8154815290600101906020018083116116fc57829003601f168201915b50505050509080600701805461172e906145e7565b80601f016020809104026020016040519081016040528092919081815260200182805461175a906145e7565b80156117a75780601f1061177c576101008083540402835291602001916117a7565b820191906000526020600020905b81548152906001019060200180831161178a57829003601f168201915b5050505050908060080180546117bc906145e7565b80601f01602080910402602001604051908101604052809291908181526020018280546117e8906145e7565b80156118355780601f1061180a57610100808354040283529160200191611835565b820191906000526020600020905b81548152906001019060200180831161181857829003601f168201915b50505050509080600901805461184a906145e7565b80601f0160208091040260200160405190810160405280929190818152602001828054611876906145e7565b80156118c35780601f10611898576101008083540402835291602001916118c3565b820191906000526020600020905b8154815290600101906020018083116118a657829003601f168201915b50505050509080600a0180546118d8906145e7565b80601f0160208091040260200160405190810160405280929190818152602001828054611904906145e7565b80156119515780601f1061192657610100808354040283529160200191611951565b820191906000526020600020905b81548152906001019060200180831161193457829003601f168201915b50505050509080600b018054611966906145e7565b80601f0160208091040260200160405190810160405280929190818152602001828054611992906145e7565b80156119df5780601f106119b4576101008083540402835291602001916119df565b820191906000526020600020905b8154815290600101906020018083116119c257829003601f168201915b505050505090508c565b6000806119f4612b53565b9050611a01818585612bef565b600191505092915050565b60606000600a5467ffffffffffffffff811115611a2c57611a2b61334d565b5b604051908082528060200260200182016040528015611a6557816020015b611a52613192565b815260200190600190039081611a4a5790505b50905060005b600d80549050811015611c6f576000600d8281548110611a8e57611a8d614a60565b5b906000526020600020015490506009600082815260200190815260200160002060405180608001604052908160008201548152602001600182018054611ad3906145e7565b80601f0160208091040260200160405190810160405280929190818152602001828054611aff906145e7565b8015611b4c5780601f10611b2157610100808354040283529160200191611b4c565b820191906000526020600020905b815481529060010190602001808311611b2f57829003601f168201915b50505050508152602001600282018054611b65906145e7565b80601f0160208091040260200160405190810160405280929190818152602001828054611b91906145e7565b8015611bde5780601f10611bb357610100808354040283529160200191611bde565b820191906000526020600020905b815481529060010190602001808311611bc157829003601f168201915b505050505081526020016003820160009054906101000a900473ffffffffffffffffffffffffffffffffffffffff1673ffffffffffffffffffffffffffffffffffffffff1673ffffffffffffffffffffffffffffffffffffffff1681525050838381518110611c5057611c4f614a60565b5b6020026020010181905250508080611c6790614a8f565b915050611a6b565b508091505090565b600060405180608001604052808581526020018681526020018381526020018473ffffffffffffffffffffffffffffffffffffffff1681525090508060096000600a548152602001908152602001600020600082015181600001556020820151816001019081611ce7919061495e565b506040820151816002019081611cfd919061495e565b5060608201518160030160006101000a81548173ffffffffffffffffffffffffffffffffffffffff021916908373ffffffffffffffffffffffffffffffffffffffff160217905550905050600d600a549080600181540180825580915050600190039060005260206000200160009091909190915055600a6000815480929190611d8690614a8f565b91905055505050505050565b600a5481565b6000600160008473ffffffffffffffffffffffffffffffffffffffff1673ffffffffffffffffffffffffffffffffffffffff16815260200190815260200160002060008373ffffffffffffffffffffffffffffffffffffffff1673ffffffffffffffffffffffffffffffffffffffff16815260200190815260200160002054905092915050565b600d8181548110611e2f57600080fd5b906000526020600020016000915090505481565b6060806000600c8054905067ffffffffffffffff811115611e6757611e6661334d565b5b604051908082528060200260200182016040528015611ea057816020015b611e8d613131565b815260200190600190039081611e855790505b5090506000600c8054905067ffffffffffffffff811115611ec457611ec361334d565b5b604051908082528060200260200182016040528015611efd57816020015b611eea6131d0565b815260200190600190039081611ee25790505b50905060005b600c805490508110156128bf576000600c8281548110611f2657611f25614a60565b5b906000526020600020018054611f3b906145e7565b80601f0160208091040260200160405190810160405280929190818152602001828054611f67906145e7565b8015611fb45780601f10611f8957610100808354040283529160200191611fb4565b820191906000526020600020905b815481529060010190602001808311611f9757829003601f168201915b50505050509050600781604051611fcb919061479b565b908152602001604051809103902060405180610180016040529081600082018054611ff5906145e7565b80601f0160208091040260200160405190810160405280929190818152602001828054612021906145e7565b801561206e5780601f106120435761010080835404028352916020019161206e565b820191906000526020600020905b81548152906001019060200180831161205157829003601f168201915b50505050508152602001600182018054612087906145e7565b80601f01602080910402602001604051908101604052809291908181526020018280546120b3906145e7565b80156121005780601f106120d557610100808354040283529160200191612100565b820191906000526020600020905b8154815290600101906020018083116120e357829003601f168201915b505050505081526020016002820154815260200160038201548152602001600482015481526020016005820154815260200160068201548152602001600782015481526020016008820154815260200160098201548152602001600a8201548152602001600b820154815250508483815181106121805761217f614a60565b5b602002602001018190525060088160405161219b919061479b565b9081526020016040518091039020604051806101800160405290816000820180546121c5906145e7565b80601f01602080910402602001604051908101604052809291908181526020018280546121f1906145e7565b801561223e5780601f106122135761010080835404028352916020019161223e565b820191906000526020600020905b81548152906001019060200180831161222157829003601f168201915b50505050508152602001600182018054612257906145e7565b80601f0160208091040260200160405190810160405280929190818152602001828054612283906145e7565b80156122d05780601f106122a5576101008083540402835291602001916122d0565b820191906000526020600020905b8154815290600101906020018083116122b357829003601f168201915b505050505081526020016002820180546122e9906145e7565b80601f0160208091040260200160405190810160405280929190818152602001828054612315906145e7565b80156123625780601f1061233757610100808354040283529160200191612362565b820191906000526020600020905b81548152906001019060200180831161234557829003601f168201915b5050505050815260200160038201805461237b906145e7565b80601f01602080910402602001604051908101604052809291908181526020018280546123a7906145e7565b80156123f45780601f106123c9576101008083540402835291602001916123f4565b820191906000526020600020905b8154815290600101906020018083116123d757829003601f168201915b5050505050815260200160048201805461240d906145e7565b80601f0160208091040260200160405190810160405280929190818152602001828054612439906145e7565b80156124865780601f1061245b57610100808354040283529160200191612486565b820191906000526020600020905b81548152906001019060200180831161246957829003601f168201915b5050505050815260200160058201805461249f906145e7565b80601f01602080910402602001604051908101604052809291908181526020018280546124cb906145e7565b80156125185780601f106124ed57610100808354040283529160200191612518565b820191906000526020600020905b8154815290600101906020018083116124fb57829003601f168201915b50505050508152602001600682018054612531906145e7565b80601f016020809104026020016040519081016040528092919081815260200182805461255d906145e7565b80156125aa5780601f1061257f576101008083540402835291602001916125aa565b820191906000526020600020905b81548152906001019060200180831161258d57829003601f168201915b505050505081526020016007820180546125c3906145e7565b80601f01602080910402602001604051908101604052809291908181526020018280546125ef906145e7565b801561263c5780601f106126115761010080835404028352916020019161263c565b820191906000526020600020905b81548152906001019060200180831161261f57829003601f168201915b50505050508152602001600882018054612655906145e7565b80601f0160208091040260200160405190810160405280929190818152602001828054612681906145e7565b80156126ce5780601f106126a3576101008083540402835291602001916126ce565b820191906000526020600020905b8154815290600101906020018083116126b157829003601f168201915b505050505081526020016009820180546126e7906145e7565b80601f0160208091040260200160405190810160405280929190818152602001828054612713906145e7565b80156127605780601f1061273557610100808354040283529160200191612760565b820191906000526020600020905b81548152906001019060200180831161274357829003601f168201915b50505050508152602001600a82018054612779906145e7565b80601f01602080910402602001604051908101604052809291908181526020018280546127a5906145e7565b80156127f25780601f106127c7576101008083540402835291602001916127f2565b820191906000526020600020905b8154815290600101906020018083116127d557829003601f168201915b50505050508152602001600b8201805461280b906145e7565b80601f0160208091040260200160405190810160405280929190818152602001828054612837906145e7565b80156128845780601f1061285957610100808354040283529160200191612884565b820191906000526020600020905b81548152906001019060200180831161286757829003601f168201915b5050505050815250508383815181106128a05761289f614a60565b5b60200260200101819052505080806128b790614a8f565b915050611f03565b5081819350935050509091565b60096020528060005260406000206000915090508060000154908060010180546128f5906145e7565b80601f0160208091040260200160405190810160405280929190818152602001828054612921906145e7565b801561296e5780601f106129435761010080835404028352916020019161296e565b820191906000526020600020905b81548152906001019060200180831161295157829003601f168201915b505050505090806002018054612983906145e7565b80601f01602080910402602001604051908101604052809291908181526020018280546129af906145e7565b80156129fc5780601f106129d1576101008083540402835291602001916129fc565b820191906000526020600020905b8154815290600101906020018083116129df57829003601f168201915b5050505050908060030160009054906101000a900473ffffffffffffffffffffffffffffffffffffffff16905084565b600073ffffffffffffffffffffffffffffffffffffffff168273ffffffffffffffffffffffffffffffffffffffff1603612a9e5760006040517fec442f05000000000000000000000000000000000000000000000000000000008152600401612a959190614ad7565b60405180910390fd5b612aaa60008383612ce3565b5050565b600080612ab9612b53565b9050612ac6818585612f08565b600191505092915050565b600073ffffffffffffffffffffffffffffffffffffffff168273ffffffffffffffffffffffffffffffffffffffff1603612b435760006040517f96c6fd1e000000000000000000000000000000000000000000000000000000008152600401612b3a9190614ad7565b60405180910390fd5b612b4f82600083612ce3565b5050565b600033905090565b6000612b678484611d98565b90507fffffffffffffffffffffffffffffffffffffffffffffffffffffffffffffffff8114612be95781811015612bd9578281836040517ffb8f41b2000000000000000000000000000000000000000000000000000000008152600401612bd093929190614af2565b60405180910390fd5b612be884848484036000612f1a565b5b50505050565b600073ffffffffffffffffffffffffffffffffffffffff168373ffffffffffffffffffffffffffffffffffffffff1603612c615760006040517f96c6fd1e000000000000000000000000000000000000000000000000000000008152600401612c589190614ad7565b60405180910390fd5b600073ffffffffffffffffffffffffffffffffffffffff168273ffffffffffffffffffffffffffffffffffffffff1603612cd35760006040517fec442f05000000000000000000000000000000000000000000000000000000008152600401612cca9190614ad7565b60405180910390fd5b612cde838383612ce3565b505050565b600073ffffffffffffffffffffffffffffffffffffffff168373ffffffffffffffffffffffffffffffffffffffff1603612d35578060026000828254612d29919061472b565b92505081905550612e08565b60008060008573ffffffffffffffffffffffffffffffffffffffff1673ffffffffffffffffffffffffffffffffffffffff16815260200190815260200160002054905081811015612dc1578381836040517fe450d38c000000000000000000000000000000000000000000000000000000008152600401612db893929190614af2565b60405180910390fd5b8181036000808673ffffffffffffffffffffffffffffffffffffffff1673ffffffffffffffffffffffffffffffffffffffff16815260200190815260200160002081905550505b600073ffffffffffffffffffffffffffffffffffffffff168273ffffffffffffffffffffffffffffffffffffffff1603612e515780600260008282540392505081905550612e9e565b806000808473ffffffffffffffffffffffffffffffffffffffff1673ffffffffffffffffffffffffffffffffffffffff168152602001908152602001600020600082825401925050819055505b8173ffffffffffffffffffffffffffffffffffffffff168373ffffffffffffffffffffffffffffffffffffffff167fddf252ad1be2c89b69c2b068fc378daa952ba7f163c4a11628f55a4df523b3ef83604051612efb9190613267565b60405180910390a3505050565b612f158383836001612f1a565b505050565b600073ffffffffffffffffffffffffffffffffffffffff168473ffffffffffffffffffffffffffffffffffffffff1603612f8c5760006040517fe602df05000000000000000000000000000000000000000000000000000000008152600401612f839190614ad7565b60405180910390fd5b600073ffffffffffffffffffffffffffffffffffffffff168373ffffffffffffffffffffffffffffffffffffffff1603612ffe5760006040517f94280d62000000000000000000000000000000000000000000000000000000008152600401612ff59190614ad7565b60405180910390fd5b81600160008673ffffffffffffffffffffffffffffffffffffffff1673ffffffffffffffffffffffffffffffffffffffff16815260200190815260200160002060008573ffffffffffffffffffffffffffffffffffffffff1673ffffffffffffffffffffffffffffffffffffffff1681526020019081526020016000208190555080156130eb578273ffffffffffffffffffffffffffffffffffffffff168473ffffffffffffffffffffffffffffffffffffffff167f8c5be1e5ebec7d5bd14f71427d1e84f3dd0314c0f7b2291e5b200ac8c7c3b925846040516130e29190613267565b60405180910390a35b50505050565b5080546130fd906145e7565b6000825580601f1061310f575061312e565b601f01602090049060005260206000209081019061312d9190613231565b5b50565b6040518061018001604052806060815260200160608152602001600081526020016000815260200160008152602001600081526020016000815260200160008152602001600081526020016000815260200160008152602001600081525090565b6040518060800160405280600081526020016060815260200160608152602001600073ffffffffffffffffffffffffffffffffffffffff1681525090565b6040518061018001604052806060815260200160608152602001606081526020016060815260200160608152602001606081526020016060815260200160608152602001606081526020016060815260200160608152602001606081525090565b5b8082111561324a576000816000905550600101613232565b5090565b6000819050919050565b6132618161324e565b82525050565b600060208201905061327c6000830184613258565b92915050565b600081519050919050565b600082825260208201905092915050565b60005b838110156132bc5780820151818401526020810190506132a1565b60008484015250505050565b6000601f19601f8301169050919050565b60006132e482613282565b6132ee818561328d565b93506132fe81856020860161329e565b613307816132c8565b840191505092915050565b6000602082019050818103600083015261332c81846132d9565b905092915050565b6000604051905090565b600080fd5b600080fd5b600080fd5b7f4e487b7100000000000000000000000000000000000000000000000000000000600052604160045260246000fd5b613385826132c8565b810181811067ffffffffffffffff821117156133a4576133a361334d565b5b80604052505050565b60006133b7613334565b90506133c3828261337c565b919050565b600080fd5b600080fd5b600080fd5b600067ffffffffffffffff8211156133f2576133f161334d565b5b6133fb826132c8565b9050602081019050919050565b82818337600083830152505050565b600061342a613425846133d7565b6133ad565b905082815260208101848484011115613446576134456133d2565b5b613451848285613408565b509392505050565b600082601f83011261346e5761346d6133cd565b5b813561347e848260208601613417565b91505092915050565b6134908161324e565b811461349b57600080fd5b50565b6000813590506134ad81613487565b92915050565b600061018082840312156134ca576134c9613348565b5b6134d56101806133ad565b9050600082013567ffffffffffffffff8111156134f5576134f46133c8565b5b61350184828501613459565b600083015250602082013567ffffffffffffffff811115613525576135246133c8565b5b61353184828501613459565b60208301525060406135458482850161349e565b60408301525060606135598482850161349e565b606083015250608061356d8482850161349e565b60808301525060a06135818482850161349e565b60a08301525060c06135958482850161349e565b60c08301525060e06135a98482850161349e565b60e0830152506101006135be8482850161349e565b610100830152506101206135d48482850161349e565b610120830152506101406135ea8482850161349e565b610140830152506101606136008482850161349e565b6101608301525092915050565b6000610180828403121561362457613623613348565b5b61362f6101806133ad565b9050600082013567ffffffffffffffff81111561364f5761364e6133c8565b5b61365b84828501613459565b600083015250602082013567ffffffffffffffff81111561367f5761367e6133c8565b5b61368b84828501613459565b602083015250604082013567ffffffffffffffff8111156136af576136ae6133c8565b5b6136bb84828501613459565b604083015250606082013567ffffffffffffffff8111156136df576136de6133c8565b5b6136eb84828501613459565b606083015250608082013567ffffffffffffffff81111561370f5761370e6133c8565b5b61371b84828501613459565b60808301525060a082013567ffffffffffffffff81111561373f5761373e6133c8565b5b61374b84828501613459565b60a08301525060c082013567ffffffffffffffff81111561376f5761376e6133c8565b5b61377b84828501613459565b60c08301525060e082013567ffffffffffffffff81111561379f5761379e6133c8565b5b6137ab84828501613459565b60e08301525061010082013567ffffffffffffffff8111156137d0576137cf6133c8565b5b6137dc84828501613459565b6101008301525061012082013567ffffffffffffffff811115613802576138016133c8565b5b61380e84828501613459565b6101208301525061014082013567ffffffffffffffff811115613834576138336133c8565b5b61384084828501613459565b6101408301525061016082013567ffffffffffffffff811115613866576138656133c8565b5b61387284828501613459565b6101608301525092915050565b600080604083850312156138965761389561333e565b5b600083013567ffffffffffffffff8111156138b4576138b3613343565b5b6138c0858286016134b3565b925050602083013567ffffffffffffffff8111156138e1576138e0613343565b5b6138ed8582860161360d565b9150509250929050565b600073ffffffffffffffffffffffffffffffffffffffff82169050919050565b6000613922826138f7565b9050919050565b61393281613917565b811461393d57600080fd5b50565b60008135905061394f81613929565b92915050565b6000806040838503121561396c5761396b61333e565b5b600061397a85828601613940565b925050602061398b8582860161349e565b9150509250929050565b60008115159050919050565b6139aa81613995565b82525050565b60006020820190506139c560008301846139a1565b92915050565b6000806000606084860312156139e4576139e361333e565b5b60006139f286828701613940565b9350506020613a038682870161349e565b925050604084013567ffffffffffffffff811115613a2457613a23613343565b5b613a3086828701613459565b9150509250925092565b600080600060608486031215613a5357613a5261333e565b5b6000613a6186828701613940565b9350506020613a7286828701613940565b9250506040613a838682870161349e565b9150509250925092565b600060208284031215613aa357613aa261333e565b5b600082013567ffffffffffffffff811115613ac157613ac0613343565b5b613acd84828501613459565b91505092915050565b6000610180820190508181036000830152613af1818f6132d9565b90508181036020830152613b05818e6132d9565b9050613b14604083018d613258565b613b21606083018c613258565b613b2e608083018b613258565b613b3b60a083018a613258565b613b4860c0830189613258565b613b5560e0830188613258565b613b63610100830187613258565b613b71610120830186613258565b613b7f610140830185613258565b613b8d610160830184613258565b9d9c50505050505050505050505050565b600060ff82169050919050565b613bb481613b9e565b82525050565b6000602082019050613bcf6000830184613bab565b92915050565b60008060408385031215613bec57613beb61333e565b5b6000613bfa8582860161349e565b9250506020613c0b8582860161349e565b9150509250929050565b613c1e81613917565b82525050565b6000608082019050613c396000830187613258565b8181036020830152613c4b81866132d9565b90508181036040830152613c5f81856132d9565b9050613c6e6060830184613c15565b95945050505050565b600082825260208201905092915050565b6000613c9382613282565b613c9d8185613c77565b9350613cad81856020860161329e565b613cb6816132c8565b840191505092915050565b613cca8161324e565b82525050565b6000610180830160008301518482036000860152613cee8282613c88565b91505060208301518482036020860152613d088282613c88565b9150506040830151613d1d6040860182613cc1565b506060830151613d306060860182613cc1565b506080830151613d436080860182613cc1565b5060a0830151613d5660a0860182613cc1565b5060c0830151613d6960c0860182613cc1565b5060e0830151613d7c60e0860182613cc1565b50610100830151613d91610100860182613cc1565b50610120830151613da6610120860182613cc1565b50610140830151613dbb610140860182613cc1565b50610160830151613dd0610160860182613cc1565b508091505092915050565b60006020820190508181036000830152613df58184613cd0565b905092915050565b600060208284031215613e1357613e1261333e565b5b6000613e2184828501613940565b91505092915050565b600060208284031215613e4057613e3f61333e565b5b6000613e4e8482850161349e565b91505092915050565b6000610180820190508181036000830152613e72818f6132d9565b90508181036020830152613e86818e6132d9565b90508181036040830152613e9a818d6132d9565b90508181036060830152613eae818c6132d9565b90508181036080830152613ec2818b6132d9565b905081810360a0830152613ed6818a6132d9565b905081810360c0830152613eea81896132d9565b905081810360e0830152613efe81886132d9565b9050818103610100830152613f1381876132d9565b9050818103610120830152613f2881866132d9565b9050818103610140830152613f3d81856132d9565b9050818103610160830152613f5281846132d9565b90509d9c50505050505050505050505050565b600081519050919050565b600082825260208201905092915050565b6000819050602082019050919050565b613f9a81613917565b82525050565b6000608083016000830151613fb86000860182613cc1565b5060208301518482036020860152613fd08282613c88565b91505060408301518482036040860152613fea8282613c88565b9150506060830151613fff6060860182613f91565b508091505092915050565b60006140168383613fa0565b905092915050565b6000602082019050919050565b600061403682613f65565b6140408185613f70565b93508360208202850161405285613f81565b8060005b8581101561408e578484038952815161406f858261400a565b945061407a8361401e565b925060208a01995050600181019050614056565b50829750879550505050505092915050565b600060208201905081810360008301526140ba818461402b565b905092915050565b600080600080608085870312156140dc576140db61333e565b5b600085013567ffffffffffffffff8111156140fa576140f9613343565b5b61410687828801613459565b94505060206141178782880161349e565b935050604061412887828801613940565b925050606085013567ffffffffffffffff81111561414957614148613343565b5b61415587828801613459565b91505092959194509250565b600080604083850312156141785761417761333e565b5b600061418685828601613940565b925050602061419785828601613940565b9150509250929050565b600081519050919050565b600082825260208201905092915050565b6000819050602082019050919050565b60006101808301600083015184820360008601526141eb8282613c88565b915050602083015184820360208601526142058282613c88565b915050604083015161421a6040860182613cc1565b50606083015161422d6060860182613cc1565b5060808301516142406080860182613cc1565b5060a083015161425360a0860182613cc1565b5060c083015161426660c0860182613cc1565b5060e083015161427960e0860182613cc1565b5061010083015161428e610100860182613cc1565b506101208301516142a3610120860182613cc1565b506101408301516142b8610140860182613cc1565b506101608301516142cd610160860182613cc1565b508091505092915050565b60006142e483836141cd565b905092915050565b6000602082019050919050565b6000614304826141a1565b61430e81856141ac565b935083602082028501614320856141bd565b8060005b8581101561435c578484038952815161433d85826142d8565b9450614348836142ec565b925060208a01995050600181019050614324565b50829750879550505050505092915050565b600081519050919050565b600082825260208201905092915050565b6000819050602082019050919050565b60006101808301600083015184820360008601526143b88282613c88565b915050602083015184820360208601526143d28282613c88565b915050604083015184820360408601526143ec8282613c88565b915050606083015184820360608601526144068282613c88565b915050608083015184820360808601526144208282613c88565b91505060a083015184820360a086015261443a8282613c88565b91505060c083015184820360c08601526144548282613c88565b91505060e083015184820360e086015261446e8282613c88565b91505061010083015184820361010086015261448a8282613c88565b9150506101208301518482036101208601526144a68282613c88565b9150506101408301518482036101408601526144c28282613c88565b9150506101608301518482036101608601526144de8282613c88565b9150508091505092915050565b60006144f7838361439a565b905092915050565b6000602082019050919050565b60006145178261436e565b6145218185614379565b9350836020820285016145338561438a565b8060005b8581101561456f578484038952815161455085826144eb565b945061455b836144ff565b925060208a01995050600181019050614537565b50829750879550505050505092915050565b6000604082019050818103600083015261459b81856142f9565b905081810360208301526145af818461450c565b90509392505050565b7f4e487b7100000000000000000000000000000000000000000000000000000000600052602260045260246000fd5b600060028204905060018216806145ff57607f821691505b602082108103614612576146116145b8565b5b50919050565b7f4e6f7420746865206f776e657200000000000000000000000000000000000000600082015250565b600061464e600d8361328d565b915061465982614618565b602082019050919050565b6000602082019050818103600083015261467d81614641565b9050919050565b600081519050919050565b600081905092915050565b60006146a582614684565b6146af818561468f565b93506146bf81856020860161329e565b80840191505092915050565b60006146d7828661469a565b91506146e3828561469a565b91506146ef828461469a565b9150819050949350505050565b7f4e487b7100000000000000000000000000000000000000000000000000000000600052601160045260246000fd5b60006147368261324e565b91506147418361324e565b9250828201905080821115614759576147586146fc565b5b92915050565b600081905092915050565b600061477582613282565b61477f818561475f565b935061478f81856020860161329e565b80840191505092915050565b60006147a7828461476a565b915081905092915050565b60008190508160005260206000209050919050565b60006020601f8301049050919050565b600082821b905092915050565b6000600883026148147fffffffffffffffffffffffffffffffffffffffffffffffffffffffffffffffff826147d7565b61481e86836147d7565b95508019841693508086168417925050509392505050565b6000819050919050565b600061485b6148566148518461324e565b614836565b61324e565b9050919050565b6000819050919050565b61487583614840565b61488961488182614862565b8484546147e4565b825550505050565b600090565b61489e614891565b6148a981848461486c565b505050565b5b818110156148cd576148c2600082614896565b6001810190506148af565b5050565b601f821115614912576148e3816147b2565b6148ec846147c7565b810160208510156148fb578190505b61490f614907856147c7565b8301826148ae565b50505b505050565b600082821c905092915050565b600061493560001984600802614917565b1980831691505092915050565b600061494e8383614924565b9150826002028217905092915050565b61496782613282565b67ffffffffffffffff8111156149805761497f61334d565b5b61498a82546145e7565b6149958282856148d1565b600060209050601f8311600181146149c857600084156149b6578287015190505b6149c08582614942565b865550614a28565b601f1984166149d6866147b2565b60005b828110156149fe578489015182556001820191506020850194506020810190506149d9565b86831015614a1b5784890151614a17601f891682614924565b8355505b6001600288020188555050505b505050505050565b6000604082019050614a456000830185613258565b8181036020830152614a578184613cd0565b90509392505050565b7f4e487b7100000000000000000000000000000000000000000000000000000000600052603260045260246000fd5b6000614a9a8261324e565b91507fffffffffffffffffffffffffffffffffffffffffffffffffffffffffffffffff8203614acc57614acb6146fc565b5b600182019050919050565b6000602082019050614aec6000830184613c15565b92915050565b6000606082019050614b076000830186613c15565b614b146020830185613258565b614b216040830184613258565b94935050505056fea2646970667358221220706cacedefc5d7f1f03df5e776a6c49d2de08a22d7ea441c461c6ac466ba0e4364736f6c63430008140033",
  "devdoc": {
    "errors": {
      "ERC20InsufficientAllowance(address,uint256,uint256)": [
        {
          "details": "Indicates a failure with the `spender`s `allowance`. Used in transfers.",
          "params": {
            "allowance": "Amount of tokens a `spender` is allowed to operate with.",
            "needed": "Minimum amount required to perform a transfer.",
            "spender": "Address that may be allowed to operate on tokens without being their owner."
          }
        }
      ],
      "ERC20InsufficientBalance(address,uint256,uint256)": [
        {
          "details": "Indicates an error related to the current `balance` of a `sender`. Used in transfers.",
          "params": {
            "balance": "Current balance for the interacting account.",
            "needed": "Minimum amount required to perform a transfer.",
            "sender": "Address whose tokens are being transferred."
          }
        }
      ],
      "ERC20InvalidApprover(address)": [
        {
          "details": "Indicates a failure with the `approver` of a token to be approved. Used in approvals.",
          "params": {
            "approver": "Address initiating an approval operation."
          }
        }
      ],
      "ERC20InvalidReceiver(address)": [
        {
          "details": "Indicates a failure with the token `receiver`. Used in transfers.",
          "params": {
            "receiver": "Address to which tokens are being transferred."
          }
        }
      ],
      "ERC20InvalidSender(address)": [
        {
          "details": "Indicates a failure with the token `sender`. Used in transfers.",
          "params": {
            "sender": "Address whose tokens are being transferred."
          }
        }
      ],
      "ERC20InvalidSpender(address)": [
        {
          "details": "Indicates a failure with the `spender` to be approved. Used in approvals.",
          "params": {
            "spender": "Address that may be allowed to operate on tokens without being their owner."
          }
        }
      ]
    },
    "events": {
      "Approval(address,address,uint256)": {
        "details": "Emitted when the allowance of a `spender` for an `owner` is set by a call to {approve}. `value` is the new allowance."
      },
      "Transfer(address,address,uint256)": {
        "details": "Emitted when `value` tokens are moved from one account (`from`) to another (`to`). Note that `value` may be zero."
      }
    },
    "kind": "dev",
    "methods": {
      "allowance(address,address)": {
        "details": "See {IERC20-allowance}."
      },
      "approve(address,uint256)": {
        "details": "See {IERC20-approve}. NOTE: If `value` is the maximum `uint256`, the allowance is not updated on `transferFrom`. This is semantically equivalent to an infinite approval. Requirements: - `spender` cannot be the zero address."
      },
      "balanceOf(address)": {
        "details": "See {IERC20-balanceOf}."
      },
      "decimals()": {
        "details": "Returns the number of decimals used to get its user representation. For example, if `decimals` equals `2`, a balance of `505` tokens should be displayed to a user as `5.05` (`505 / 10 ** 2`). Tokens usually opt for a value of 18, imitating the relationship between Ether and Wei. This is the default value returned by this function, unless it's overridden. NOTE: This information is only used for _display_ purposes: it in no way affects any of the arithmetic of the contract, including {IERC20-balanceOf} and {IERC20-transfer}."
      },
      "name()": {
        "details": "Returns the name of the token."
      },
      "symbol()": {
        "details": "Returns the symbol of the token, usually a shorter version of the name."
      },
      "totalSupply()": {
        "details": "See {IERC20-totalSupply}."
      },
      "transfer(address,uint256)": {
        "details": "See {IERC20-transfer}. Requirements: - `to` cannot be the zero address. - the caller must have a balance of at least `value`."
      },
      "transferFrom(address,address,uint256)": {
        "details": "See {IERC20-transferFrom}. Emits an {Approval} event indicating the updated allowance. This is not required by the EIP. See the note at the beginning of {ERC20}. NOTE: Does not update the allowance if the current allowance is the maximum `uint256`. Requirements: - `from` and `to` cannot be the zero address. - `from` must have a balance of at least `value`. - the caller must have allowance for ``from``'s tokens of at least `value`."
      }
    },
    "version": 1
  },
  "userdoc": {
    "kind": "user",
    "methods": {},
    "version": 1
  },
  "storageLayout": {
    "storage": [
      {
        "astId": 205,
        "contract": "contracts/NewToken.sol:AssetNewToken",
        "label": "_balances",
        "offset": 0,
        "slot": "0",
        "type": "t_mapping(t_address,t_uint256)"
      },
      {
        "astId": 211,
        "contract": "contracts/NewToken.sol:AssetNewToken",
        "label": "_allowances",
        "offset": 0,
        "slot": "1",
        "type": "t_mapping(t_address,t_mapping(t_address,t_uint256))"
      },
      {
        "astId": 213,
        "contract": "contracts/NewToken.sol:AssetNewToken",
        "label": "_totalSupply",
        "offset": 0,
        "slot": "2",
        "type": "t_uint256"
      },
      {
        "astId": 215,
        "contract": "contracts/NewToken.sol:AssetNewToken",
        "label": "_name",
        "offset": 0,
        "slot": "3",
        "type": "t_string_storage"
      },
      {
        "astId": 217,
        "contract": "contracts/NewToken.sol:AssetNewToken",
        "label": "_symbol",
        "offset": 0,
        "slot": "4",
        "type": "t_string_storage"
      },
      {
        "astId": 893,
        "contract": "contracts/NewToken.sol:AssetNewToken",
        "label": "tokenPriceInMatics",
        "offset": 0,
        "slot": "5",
        "type": "t_uint256"
      },
      {
        "astId": 895,
        "contract": "contracts/NewToken.sol:AssetNewToken",
        "label": "totalAssets",
        "offset": 0,
        "slot": "6",
        "type": "t_uint256"
      },
      {
        "astId": 900,
        "contract": "contracts/NewToken.sol:AssetNewToken",
        "label": "assetDetails",
        "offset": 0,
        "slot": "7",
        "type": "t_mapping(t_string_memory_ptr,t_struct(AssetDetails)851_storage)"
      },
      {
        "astId": 905,
        "contract": "contracts/NewToken.sol:AssetNewToken",
        "label": "details",
        "offset": 0,
        "slot": "8",
        "type": "t_mapping(t_string_memory_ptr,t_struct(Details)876_storage)"
      },
      {
        "astId": 910,
        "contract": "contracts/NewToken.sol:AssetNewToken",
        "label": "investments",
        "offset": 0,
        "slot": "9",
        "type": "t_mapping(t_uint256,t_struct(InvestmentDetails)885_storage)"
      },
      {
        "astId": 913,
        "contract": "contracts/NewToken.sol:AssetNewToken",
        "label": "nextInvestmentId",
        "offset": 0,
        "slot": "10",
        "type": "t_uint256"
      },
      {
        "astId": 919,
        "contract": "contracts/NewToken.sol:AssetNewToken",
        "label": "investmentsArray",
        "offset": 0,
        "slot": "11",
        "type": "t_array(t_mapping(t_uint256,t_struct(InvestmentDetails)885_storage))dyn_storage"
      },
      {
        "astId": 922,
        "contract": "contracts/NewToken.sol:AssetNewToken",
        "label": "assetIds",
        "offset": 0,
        "slot": "12",
        "type": "t_array(t_string_storage)dyn_storage"
      },
      {
        "astId": 925,
        "contract": "contracts/NewToken.sol:AssetNewToken",
        "label": "investmentIds",
        "offset": 0,
        "slot": "13",
        "type": "t_array(t_uint256)dyn_storage"
      }
    ],
    "types": {
      "t_address": {
        "encoding": "inplace",
        "label": "address",
        "numberOfBytes": "20"
      },
      "t_array(t_mapping(t_uint256,t_struct(InvestmentDetails)885_storage))dyn_storage": {
        "base": "t_mapping(t_uint256,t_struct(InvestmentDetails)885_storage)",
        "encoding": "dynamic_array",
        "label": "mapping(uint256 => struct InvestmentDetails)[]",
        "numberOfBytes": "32"
      },
      "t_array(t_string_storage)dyn_storage": {
        "base": "t_string_storage",
        "encoding": "dynamic_array",
        "label": "string[]",
        "numberOfBytes": "32"
      },
      "t_array(t_uint256)dyn_storage": {
        "base": "t_uint256",
        "encoding": "dynamic_array",
        "label": "uint256[]",
        "numberOfBytes": "32"
      },
      "t_mapping(t_address,t_mapping(t_address,t_uint256))": {
        "encoding": "mapping",
        "key": "t_address",
        "label": "mapping(address => mapping(address => uint256))",
        "numberOfBytes": "32",
        "value": "t_mapping(t_address,t_uint256)"
      },
      "t_mapping(t_address,t_uint256)": {
        "encoding": "mapping",
        "key": "t_address",
        "label": "mapping(address => uint256)",
        "numberOfBytes": "32",
        "value": "t_uint256"
      },
      "t_mapping(t_string_memory_ptr,t_struct(AssetDetails)851_storage)": {
        "encoding": "mapping",
        "key": "t_string_memory_ptr",
        "label": "mapping(string => struct AssetDetails)",
        "numberOfBytes": "32",
        "value": "t_struct(AssetDetails)851_storage"
      },
      "t_mapping(t_string_memory_ptr,t_struct(Details)876_storage)": {
        "encoding": "mapping",
        "key": "t_string_memory_ptr",
        "label": "mapping(string => struct Details)",
        "numberOfBytes": "32",
        "value": "t_struct(Details)876_storage"
      },
      "t_mapping(t_uint256,t_struct(InvestmentDetails)885_storage)": {
        "encoding": "mapping",
        "key": "t_uint256",
        "label": "mapping(uint256 => struct InvestmentDetails)",
        "numberOfBytes": "32",
        "value": "t_struct(InvestmentDetails)885_storage"
      },
      "t_string_memory_ptr": {
        "encoding": "bytes",
        "label": "string",
        "numberOfBytes": "32"
      },
      "t_string_storage": {
        "encoding": "bytes",
        "label": "string",
        "numberOfBytes": "32"
      },
      "t_struct(AssetDetails)851_storage": {
        "encoding": "inplace",
        "label": "struct AssetDetails",
        "members": [
          {
            "astId": 828,
            "contract": "contracts/NewToken.sol:AssetNewToken",
            "label": "name",
            "offset": 0,
            "slot": "0",
            "type": "t_string_storage"
          },
          {
            "astId": 830,
            "contract": "contracts/NewToken.sol:AssetNewToken",
            "label": "direction",
            "offset": 0,
            "slot": "1",
            "type": "t_string_storage"
          },
          {
            "astId": 832,
            "contract": "contracts/NewToken.sol:AssetNewToken",
            "label": "amount",
            "offset": 0,
            "slot": "2",
            "type": "t_uint256"
          },
          {
            "astId": 834,
            "contract": "contracts/NewToken.sol:AssetNewToken",
            "label": "amountInterest",
            "offset": 0,
            "slot": "3",
            "type": "t_uint256"
          },
          {
            "astId": 836,
            "contract": "contracts/NewToken.sol:AssetNewToken",
            "label": "grossAnnualRent",
            "offset": 0,
            "slot": "4",
            "type": "t_uint256"
          },
          {
            "astId": 838,
            "contract": "contracts/NewToken.sol:AssetNewToken",
            "label": "netAmountRent",
            "offset": 0,
            "slot": "5",
            "type": "t_uint256"
          },
          {
            "astId": 840,
            "contract": "contracts/NewToken.sol:AssetNewToken",
            "label": "interestPayment",
            "offset": 0,
            "slot": "6",
            "type": "t_uint256"
          },
          {
            "astId": 842,
            "contract": "contracts/NewToken.sol:AssetNewToken",
            "label": "numberOfTokens",
            "offset": 0,
            "slot": "7",
            "type": "t_uint256"
          },
          {
            "astId": 844,
            "contract": "contracts/NewToken.sol:AssetNewToken",
            "label": "tokenPrice",
            "offset": 0,
            "slot": "8",
            "type": "t_uint256"
          },
          {
            "astId": 846,
            "contract": "contracts/NewToken.sol:AssetNewToken",
            "label": "minInvestment",
            "offset": 0,
            "slot": "9",
            "type": "t_uint256"
          },
          {
            "astId": 848,
            "contract": "contracts/NewToken.sol:AssetNewToken",
            "label": "homeInterest",
            "offset": 0,
            "slot": "10",
            "type": "t_uint256"
          },
          {
            "astId": 850,
            "contract": "contracts/NewToken.sol:AssetNewToken",
            "label": "deadline",
            "offset": 0,
            "slot": "11",
            "type": "t_uint256"
          }
        ],
        "numberOfBytes": "384"
      },
      "t_struct(Details)876_storage": {
        "encoding": "inplace",
        "label": "struct Details",
        "members": [
          {
            "astId": 853,
            "contract": "contracts/NewToken.sol:AssetNewToken",
            "label": "secMarket",
            "offset": 0,
            "slot": "0",
            "type": "t_string_storage"
          },
          {
            "astId": 855,
            "contract": "contracts/NewToken.sol:AssetNewToken",
            "label": "currency",
            "offset": 0,
            "slot": "1",
            "type": "t_string_storage"
          },
          {
            "astId": 857,
            "contract": "contracts/NewToken.sol:AssetNewToken",
            "label": "neighood",
            "offset": 0,
            "slot": "2",
            "type": "t_string_storage"
          },
          {
            "astId": 859,
            "contract": "contracts/NewToken.sol:AssetNewToken",
            "label": "yoc",
            "offset": 0,
            "slot": "3",
            "type": "t_string_storage"
          },
          {
            "astId": 861,
            "contract": "contracts/NewToken.sol:AssetNewToken",
            "label": "elevator",
            "offset": 0,
            "slot": "4",
            "type": "t_string_storage"
          },
          {
            "astId": 863,
            "contract": "contracts/NewToken.sol:AssetNewToken",
            "label": "buildedSurface",
            "offset": 0,
            "slot": "5",
            "type": "t_string_storage"
          },
          {
            "astId": 865,
            "contract": "contracts/NewToken.sol:AssetNewToken",
            "label": "bedrooms",
            "offset": 0,
            "slot": "6",
            "type": "t_string_storage"
          },
          {
            "astId": 867,
            "contract": "contracts/NewToken.sol:AssetNewToken",
            "label": "bathrooms",
            "offset": 0,
            "slot": "7",
            "type": "t_string_storage"
          },
          {
            "astId": 869,
            "contract": "contracts/NewToken.sol:AssetNewToken",
            "label": "isRented",
            "offset": 0,
            "slot": "8",
            "type": "t_string_storage"
          },
          {
            "astId": 871,
            "contract": "contracts/NewToken.sol:AssetNewToken",
            "label": "tokenName",
            "offset": 0,
            "slot": "9",
            "type": "t_string_storage"
          },
          {
            "astId": 873,
            "contract": "contracts/NewToken.sol:AssetNewToken",
            "label": "description",
            "offset": 0,
            "slot": "10",
            "type": "t_string_storage"
          },
          {
            "astId": 875,
            "contract": "contracts/NewToken.sol:AssetNewToken",
            "label": "dateCreated",
            "offset": 0,
            "slot": "11",
            "type": "t_string_storage"
          }
        ],
        "numberOfBytes": "384"
      },
      "t_struct(InvestmentDetails)885_storage": {
        "encoding": "inplace",
        "label": "struct InvestmentDetails",
        "members": [
          {
            "astId": 878,
            "contract": "contracts/NewToken.sol:AssetNewToken",
            "label": "tokenPurchase",
            "offset": 0,
            "slot": "0",
            "type": "t_uint256"
          },
          {
            "astId": 880,
            "contract": "contracts/NewToken.sol:AssetNewToken",
            "label": "query",
            "offset": 0,
            "slot": "1",
            "type": "t_string_storage"
          },
          {
            "astId": 882,
            "contract": "contracts/NewToken.sol:AssetNewToken",
            "label": "userEmail",
            "offset": 0,
            "slot": "2",
            "type": "t_string_storage"
          },
          {
            "astId": 884,
            "contract": "contracts/NewToken.sol:AssetNewToken",
            "label": "userAddress",
            "offset": 0,
            "slot": "3",
            "type": "t_address"
          }
        ],
        "numberOfBytes": "128"
      },
      "t_uint256": {
        "encoding": "inplace",
        "label": "uint256",
        "numberOfBytes": "32"
      }
    }
  }
}