{
  "address": "0x0d49Fcb0812bB41407ecD528f83Fa5C688E546f9",
  "abi": [
    {
      "inputs": [
        {
          "internalType": "address",
          "name": "_tokenAddress",
          "type": "address"
        },
        {
          "internalType": "address",
          "name": "_priceFeedAddress",
          "type": "address"
        },
        {
          "internalType": "address",
          "name": "_userAddress",
          "type": "address"
        }
      ],
      "stateMutability": "nonpayable",
      "type": "constructor"
    },
    {
      "anonymous": false,
      "inputs": [
        {
          "indexed": true,
          "internalType": "address",
          "name": "buyer",
          "type": "address"
        },
        {
          "indexed": false,
          "internalType": "uint256",
          "name": "amount",
          "type": "uint256"
        },
        {
          "components": [
            {
              "internalType": "string",
              "name": "name",
              "type": "string"
            },
            {
              "internalType": "string",
              "name": "direction",
              "type": "string"
            },
            {
              "internalType": "uint256",
              "name": "amount",
              "type": "uint256"
            },
            {
              "internalType": "uint256",
              "name": "amountInterest",
              "type": "uint256"
            },
            {
              "internalType": "uint256",
              "name": "grossAnnualRent",
              "type": "uint256"
            },
            {
              "internalType": "uint256",
              "name": "netAmountRent",
              "type": "uint256"
            },
            {
              "internalType": "uint256",
              "name": "interestPayment",
              "type": "uint256"
            },
            {
              "internalType": "uint256",
              "name": "numberOfTokens",
              "type": "uint256"
            },
            {
              "internalType": "uint256",
              "name": "tokenPrice",
              "type": "uint256"
            },
            {
              "internalType": "uint256",
              "name": "minInvestment",
              "type": "uint256"
            },
            {
              "internalType": "uint256",
              "name": "homeInterest",
              "type": "uint256"
            },
            {
              "internalType": "uint256",
              "name": "deadline",
              "type": "uint256"
            }
          ],
          "indexed": false,
          "internalType": "struct AssetDetails",
          "name": "assetInfo",
          "type": "tuple"
        }
      ],
      "name": "TokenSold",
      "type": "event"
    },
    {
      "inputs": [],
      "name": "balance",
      "outputs": [
        {
          "internalType": "uint256",
          "name": "",
          "type": "uint256"
        }
      ],
      "stateMutability": "view",
      "type": "function"
    },
    {
      "inputs": [],
      "name": "getPrice",
      "outputs": [],
      "stateMutability": "nonpayable",
      "type": "function"
    },
    {
      "inputs": [],
      "name": "getSender",
      "outputs": [
        {
          "internalType": "address",
          "name": "",
          "type": "address"
        }
      ],
      "stateMutability": "view",
      "type": "function"
    },
    {
      "inputs": [
        {
          "internalType": "string",
          "name": "_query",
          "type": "string"
        }
      ],
      "name": "getTokenPur",
      "outputs": [
        {
          "internalType": "uint256",
          "name": "",
          "type": "uint256"
        }
      ],
      "stateMutability": "payable",
      "type": "function"
    },
    {
      "inputs": [],
      "name": "maticPrice",
      "outputs": [
        {
          "internalType": "uint256",
          "name": "",
          "type": "uint256"
        }
      ],
      "stateMutability": "view",
      "type": "function"
    },
    {
      "inputs": [],
      "name": "maticsRequiredForOneToken",
      "outputs": [
        {
          "internalType": "uint256",
          "name": "",
          "type": "uint256"
        }
      ],
      "stateMutability": "view",
      "type": "function"
    },
    {
      "inputs": [],
      "name": "owner",
      "outputs": [
        {
          "internalType": "address",
          "name": "",
          "type": "address"
        }
      ],
      "stateMutability": "view",
      "type": "function"
    },
    {
      "inputs": [],
      "name": "priceFeed",
      "outputs": [
        {
          "internalType": "contract AggregatorV3Interface",
          "name": "",
          "type": "address"
        }
      ],
      "stateMutability": "view",
      "type": "function"
    },
    {
      "inputs": [],
      "name": "priceFeedAddress",
      "outputs": [
        {
          "internalType": "address",
          "name": "",
          "type": "address"
        }
      ],
      "stateMutability": "view",
      "type": "function"
    },
    {
      "inputs": [
        {
          "internalType": "string",
          "name": "_query",
          "type": "string"
        }
      ],
      "name": "purchaseTokens",
      "outputs": [],
      "stateMutability": "payable",
      "type": "function"
    },
    {
      "inputs": [],
      "name": "tokenAddress",
      "outputs": [
        {
          "internalType": "address",
          "name": "",
          "type": "address"
        }
      ],
      "stateMutability": "view",
      "type": "function"
    },
    {
      "inputs": [],
      "name": "tokensPurchase",
      "outputs": [
        {
          "internalType": "uint256",
          "name": "",
          "type": "uint256"
        }
      ],
      "stateMutability": "view",
      "type": "function"
    },
    {
      "inputs": [],
      "name": "userAddress",
      "outputs": [
        {
          "internalType": "address",
          "name": "",
          "type": "address"
        }
      ],
      "stateMutability": "view",
      "type": "function"
    }
  ],
  "transactionHash": "0x8aa3103646ac974438c96397cd0f8ac1d2c146b4c43d5fe535838fddb65f9690",
  "args": [
    "0x5Ff135846589d6B492c1928541d0F0bD7FE68f27",
    "0xd0D5e3DB44DE05E9F294BB0a3bEEaF030DE24Ada",
    "0x9F5e972d10C79A86f9FC2C4DC2463cf2E411B536"
  ],
  "numDeployments": 44,
  "solcInputHash": "e1e7144f8f5dc72d17c723d64a7760b5",
  "bytecode": "0x60806040523480156200001157600080fd5b5060405162001359380380620013598339818101604052810190620000379190620001ee565b33600160006101000a81548173ffffffffffffffffffffffffffffffffffffffff021916908373ffffffffffffffffffffffffffffffffffffffff160217905550826000806101000a81548173ffffffffffffffffffffffffffffffffffffffff021916908373ffffffffffffffffffffffffffffffffffffffff16021790555080600660006101000a81548173ffffffffffffffffffffffffffffffffffffffff021916908373ffffffffffffffffffffffffffffffffffffffff16021790555082600860006101000a81548173ffffffffffffffffffffffffffffffffffffffff021916908373ffffffffffffffffffffffffffffffffffffffff16021790555081600360006101000a81548173ffffffffffffffffffffffffffffffffffffffff021916908373ffffffffffffffffffffffffffffffffffffffff1602179055505050506200024a565b600080fd5b600073ffffffffffffffffffffffffffffffffffffffff82169050919050565b6000620001b68262000189565b9050919050565b620001c881620001a9565b8114620001d457600080fd5b50565b600081519050620001e881620001bd565b92915050565b6000806000606084860312156200020a576200020962000184565b5b60006200021a86828701620001d7565b93505060206200022d86828701620001d7565b92505060406200024086828701620001d7565b9150509250925092565b6110ff806200025a6000396000f3fe6080604052600436106100c25760003560e01c80638e46bf661161007f578063b69ef8a811610059578063b69ef8a814610227578063e0abca0b14610252578063e2a3d6941461027d578063e4128fb3146102ad576100c2565b80638e46bf66146101ba57806398d5fdca146101e55780639d76ea58146101fc576100c2565b806314896790146100c757806345ea451a146100f25780635e01eb5a1461011d578063741bef1a1461014857806387c51405146101735780638da5cb5b1461018f575b600080fd5b3480156100d357600080fd5b506100dc6102d8565b6040516100e991906108ad565b60405180910390f35b3480156100fe57600080fd5b506101076102de565b60405161011491906108ad565b60405180910390f35b34801561012957600080fd5b506101326102e4565b60405161013f9190610909565b60405180910390f35b34801561015457600080fd5b5061015d61030e565b60405161016a9190610983565b60405180910390f35b61018d60048036038101906101889190610af8565b610334565b005b34801561019b57600080fd5b506101a46105f5565b6040516101b19190610909565b60405180910390f35b3480156101c657600080fd5b506101cf61061b565b6040516101dc91906108ad565b60405180910390f35b3480156101f157600080fd5b506101fa610621565b005b34801561020857600080fd5b506102116106c0565b60405161021e9190610909565b60405180910390f35b34801561023357600080fd5b5061023c6106e4565b60405161024991906108ad565b60405180910390f35b34801561025e57600080fd5b506102676106ea565b6040516102749190610909565b60405180910390f35b61029760048036038101906102929190610af8565b610710565b6040516102a491906108ad565b60405180910390f35b3480156102b957600080fd5b506102c26107c8565b6040516102cf9190610909565b60405180910390f35b60075481565b60045481565b6000600660009054906101000a900473ffffffffffffffffffffffffffffffffffffffff16905090565b600260009054906101000a900473ffffffffffffffffffffffffffffffffffffffff1681565b600360009054906101000a900473ffffffffffffffffffffffffffffffffffffffff16600260006101000a81548173ffffffffffffffffffffffffffffffffffffffff021916908373ffffffffffffffffffffffffffffffffffffffff1602179055506103cb670de0b6b3a7640000600260009054906101000a900473ffffffffffffffffffffffffffffffffffffffff166107ee565b600481905550600860009054906101000a900473ffffffffffffffffffffffffffffffffffffffff1673ffffffffffffffffffffffffffffffffffffffff166368fbe23e826040518263ffffffff1660e01b815260040161042c9190610bc0565b600060405180830381865afa158015610449573d6000803e3d6000fd5b505050506040513d6000823e3d601f19601f820116820180604052508101906104729190610de2565b61010001516009819055506009543461048b9190610e89565b60078190555034600581905550600860009054906101000a900473ffffffffffffffffffffffffffffffffffffffff1673ffffffffffffffffffffffffffffffffffffffff166323b872dd600160009054906101000a900473ffffffffffffffffffffffffffffffffffffffff16336007546040518463ffffffff1660e01b815260040161051b93929190610eba565b6020604051808303816000875af115801561053a573d6000803e3d6000fd5b505050506040513d601f19601f8201168201806040525081019061055e9190610f29565b50600860009054906101000a900473ffffffffffffffffffffffffffffffffffffffff1673ffffffffffffffffffffffffffffffffffffffff1663534e6e3e82600754336040518463ffffffff1660e01b81526004016105c093929190610f56565b600060405180830381600087803b1580156105da57600080fd5b505af11580156105ee573d6000803e3d6000fd5b5050505050565b600160009054906101000a900473ffffffffffffffffffffffffffffffffffffffff1681565b60095481565b600360009054906101000a900473ffffffffffffffffffffffffffffffffffffffff16600260006101000a81548173ffffffffffffffffffffffffffffffffffffffff021916908373ffffffffffffffffffffffffffffffffffffffff1602179055506106b8670de0b6b3a7640000600260009054906101000a900473ffffffffffffffffffffffffffffffffffffffff166107ee565b600481905550565b60008054906101000a900473ffffffffffffffffffffffffffffffffffffffff1681565b60055481565b600360009054906101000a900473ffffffffffffffffffffffffffffffffffffffff1681565b6000600860009054906101000a900473ffffffffffffffffffffffffffffffffffffffff1673ffffffffffffffffffffffffffffffffffffffff166368fbe23e836040518263ffffffff1660e01b815260040161076d9190610bc0565b600060405180830381865afa15801561078a573d6000803e3d6000fd5b505050506040513d6000823e3d601f19601f820116820180604052508101906107b39190610de2565b61010001516009819055506009549050919050565b600660009054906101000a900473ffffffffffffffffffffffffffffffffffffffff1681565b6000808273ffffffffffffffffffffffffffffffffffffffff1663feaf968c6040518163ffffffff1660e01b815260040160a060405180830381865afa15801561083c573d6000803e3d6000fd5b505050506040513d601f19601f82011682018060405250810190610860919061100c565b5050509150506000670de0b6b3a7640000858361087d9190611087565b6108879190610e89565b9050809250505092915050565b6000819050919050565b6108a781610894565b82525050565b60006020820190506108c2600083018461089e565b92915050565b600073ffffffffffffffffffffffffffffffffffffffff82169050919050565b60006108f3826108c8565b9050919050565b610903816108e8565b82525050565b600060208201905061091e60008301846108fa565b92915050565b6000819050919050565b600061094961094461093f846108c8565b610924565b6108c8565b9050919050565b600061095b8261092e565b9050919050565b600061096d82610950565b9050919050565b61097d81610962565b82525050565b60006020820190506109986000830184610974565b92915050565b6000604051905090565b600080fd5b600080fd5b600080fd5b600080fd5b6000601f19601f8301169050919050565b7f4e487b7100000000000000000000000000000000000000000000000000000000600052604160045260246000fd5b610a05826109bc565b810181811067ffffffffffffffff82111715610a2457610a236109cd565b5b80604052505050565b6000610a3761099e565b9050610a4382826109fc565b919050565b600067ffffffffffffffff821115610a6357610a626109cd565b5b610a6c826109bc565b9050602081019050919050565b82818337600083830152505050565b6000610a9b610a9684610a48565b610a2d565b905082815260208101848484011115610ab757610ab66109b7565b5b610ac2848285610a79565b509392505050565b600082601f830112610adf57610ade6109b2565b5b8135610aef848260208601610a88565b91505092915050565b600060208284031215610b0e57610b0d6109a8565b5b600082013567ffffffffffffffff811115610b2c57610b2b6109ad565b5b610b3884828501610aca565b91505092915050565b600081519050919050565b600082825260208201905092915050565b60005b83811015610b7b578082015181840152602081019050610b60565b60008484015250505050565b6000610b9282610b41565b610b9c8185610b4c565b9350610bac818560208601610b5d565b610bb5816109bc565b840191505092915050565b60006020820190508181036000830152610bda8184610b87565b905092915050565b600080fd5b600080fd5b6000610bff610bfa84610a48565b610a2d565b905082815260208101848484011115610c1b57610c1a6109b7565b5b610c26848285610b5d565b509392505050565b600082601f830112610c4357610c426109b2565b5b8151610c53848260208601610bec565b91505092915050565b610c6581610894565b8114610c7057600080fd5b50565b600081519050610c8281610c5c565b92915050565b60006101808284031215610c9f57610c9e610be2565b5b610caa610180610a2d565b9050600082015167ffffffffffffffff811115610cca57610cc9610be7565b5b610cd684828501610c2e565b600083015250602082015167ffffffffffffffff811115610cfa57610cf9610be7565b5b610d0684828501610c2e565b6020830152506040610d1a84828501610c73565b6040830152506060610d2e84828501610c73565b6060830152506080610d4284828501610c73565b60808301525060a0610d5684828501610c73565b60a08301525060c0610d6a84828501610c73565b60c08301525060e0610d7e84828501610c73565b60e083015250610100610d9384828501610c73565b61010083015250610120610da984828501610c73565b61012083015250610140610dbf84828501610c73565b61014083015250610160610dd584828501610c73565b6101608301525092915050565b600060208284031215610df857610df76109a8565b5b600082015167ffffffffffffffff811115610e1657610e156109ad565b5b610e2284828501610c88565b91505092915050565b7f4e487b7100000000000000000000000000000000000000000000000000000000600052601260045260246000fd5b7f4e487b7100000000000000000000000000000000000000000000000000000000600052601160045260246000fd5b6000610e9482610894565b9150610e9f83610894565b925082610eaf57610eae610e2b565b5b828204905092915050565b6000606082019050610ecf60008301866108fa565b610edc60208301856108fa565b610ee9604083018461089e565b949350505050565b60008115159050919050565b610f0681610ef1565b8114610f1157600080fd5b50565b600081519050610f2381610efd565b92915050565b600060208284031215610f3f57610f3e6109a8565b5b6000610f4d84828501610f14565b91505092915050565b60006060820190508181036000830152610f708186610b87565b9050610f7f602083018561089e565b610f8c60408301846108fa565b949350505050565b600069ffffffffffffffffffff82169050919050565b610fb381610f94565b8114610fbe57600080fd5b50565b600081519050610fd081610faa565b92915050565b6000819050919050565b610fe981610fd6565b8114610ff457600080fd5b50565b60008151905061100681610fe0565b92915050565b600080600080600060a08688031215611028576110276109a8565b5b600061103688828901610fc1565b955050602061104788828901610ff7565b945050604061105888828901610c73565b935050606061106988828901610c73565b925050608061107a88828901610fc1565b9150509295509295909350565b600061109282610894565b915061109d83610894565b92508282026110ab81610894565b915082820484148315176110c2576110c1610e5a565b5b509291505056fea2646970667358221220e3695fd9b3dfd13c1c6de6a1382b338f1416f1e89f72b8f6b8416a1ca646c71364736f6c63430008140033",
  "devdoc": {
    "kind": "dev",
    "methods": {},
    "version": 1
  },
  "userdoc": {
    "kind": "user",
    "methods": {},
    "version": 1
  },
  "storageLayout": {
    "storage": [
      {
        "astId": 1292,
        "contract": "contracts/TokenSale.sol:AssetTokenSale",
        "label": "tokenAddress",
        "offset": 0,
        "slot": "0",
        "type": "t_address"
      },
      {
        "astId": 1294,
        "contract": "contracts/TokenSale.sol:AssetTokenSale",
        "label": "owner",
        "offset": 0,
        "slot": "1",
        "type": "t_address"
      },
      {
        "astId": 1297,
        "contract": "contracts/TokenSale.sol:AssetTokenSale",
        "label": "priceFeed",
        "offset": 0,
        "slot": "2",
        "type": "t_contract(AggregatorV3Interface)45"
      },
      {
        "astId": 1299,
        "contract": "contracts/TokenSale.sol:AssetTokenSale",
        "label": "priceFeedAddress",
        "offset": 0,
        "slot": "3",
        "type": "t_address"
      },
      {
        "astId": 1301,
        "contract": "contracts/TokenSale.sol:AssetTokenSale",
        "label": "maticPrice",
        "offset": 0,
        "slot": "4",
        "type": "t_uint256"
      },
      {
        "astId": 1303,
        "contract": "contracts/TokenSale.sol:AssetTokenSale",
        "label": "balance",
        "offset": 0,
        "slot": "5",
        "type": "t_uint256"
      },
      {
        "astId": 1305,
        "contract": "contracts/TokenSale.sol:AssetTokenSale",
        "label": "userAddress",
        "offset": 0,
        "slot": "6",
        "type": "t_address"
      },
      {
        "astId": 1307,
        "contract": "contracts/TokenSale.sol:AssetTokenSale",
        "label": "tokensPurchase",
        "offset": 0,
        "slot": "7",
        "type": "t_uint256"
      },
      {
        "astId": 1310,
        "contract": "contracts/TokenSale.sol:AssetTokenSale",
        "label": "assetNewToken",
        "offset": 0,
        "slot": "8",
        "type": "t_contract(AssetNewToken)1286"
      },
      {
        "astId": 1312,
        "contract": "contracts/TokenSale.sol:AssetTokenSale",
        "label": "maticsRequiredForOneToken",
        "offset": 0,
        "slot": "9",
        "type": "t_uint256"
      }
    ],
    "types": {
      "t_address": {
        "encoding": "inplace",
        "label": "address",
        "numberOfBytes": "20"
      },
      "t_contract(AggregatorV3Interface)45": {
        "encoding": "inplace",
        "label": "contract AggregatorV3Interface",
        "numberOfBytes": "20"
      },
      "t_contract(AssetNewToken)1286": {
        "encoding": "inplace",
        "label": "contract AssetNewToken",
        "numberOfBytes": "20"
      },
      "t_uint256": {
        "encoding": "inplace",
        "label": "uint256",
        "numberOfBytes": "32"
      }
    }
  }
}