{
  "address": "0x2b47b5361d5e93288F55d3C341803A96744b8BE2",
  "abi": [
    {
      "inputs": [
        {
          "internalType": "address",
          "name": "_tokenAddress",
          "type": "address"
        }
      ],
      "stateMutability": "nonpayable",
      "type": "constructor"
    },
    {
      "anonymous": false,
      "inputs": [
        {
          "indexed": true,
          "internalType": "address",
          "name": "buyer",
          "type": "address"
        },
        {
          "indexed": false,
          "internalType": "uint256",
          "name": "amount",
          "type": "uint256"
        },
        {
          "components": [
            {
              "internalType": "string",
              "name": "name",
              "type": "string"
            },
            {
              "internalType": "string",
              "name": "direction",
              "type": "string"
            },
            {
              "internalType": "uint256",
              "name": "amount",
              "type": "uint256"
            },
            {
              "internalType": "uint256",
              "name": "amountInterest",
              "type": "uint256"
            },
            {
              "internalType": "uint256",
              "name": "grossAnnualRent",
              "type": "uint256"
            },
            {
              "internalType": "uint256",
              "name": "netAmountRent",
              "type": "uint256"
            },
            {
              "internalType": "uint256",
              "name": "interestPayment",
              "type": "uint256"
            },
            {
              "internalType": "uint256",
              "name": "numberOfTokens",
              "type": "uint256"
            },
            {
              "internalType": "uint256",
              "name": "tokenPrice",
              "type": "uint256"
            },
            {
              "internalType": "uint256",
              "name": "minInvestment",
              "type": "uint256"
            },
            {
              "internalType": "uint256",
              "name": "homeInterest",
              "type": "uint256"
            },
            {
              "internalType": "uint256",
              "name": "deadline",
              "type": "uint256"
            }
          ],
          "indexed": false,
          "internalType": "struct AssetDetails",
          "name": "assetInfo",
          "type": "tuple"
        }
      ],
      "name": "TokenSold",
      "type": "event"
    },
    {
      "inputs": [],
      "name": "balance",
      "outputs": [
        {
          "internalType": "uint256",
          "name": "",
          "type": "uint256"
        }
      ],
      "stateMutability": "view",
      "type": "function"
    },
    {
      "inputs": [],
      "name": "getPrice",
      "outputs": [],
      "stateMutability": "nonpayable",
      "type": "function"
    },
    {
      "inputs": [],
      "name": "getSender",
      "outputs": [
        {
          "internalType": "address",
          "name": "",
          "type": "address"
        }
      ],
      "stateMutability": "view",
      "type": "function"
    },
    {
      "inputs": [
        {
          "internalType": "string",
          "name": "_query",
          "type": "string"
        }
      ],
      "name": "getTokenPur",
      "outputs": [
        {
          "internalType": "uint256",
          "name": "",
          "type": "uint256"
        }
      ],
      "stateMutability": "payable",
      "type": "function"
    },
    {
      "inputs": [],
      "name": "maticPrice",
      "outputs": [
        {
          "internalType": "uint256",
          "name": "",
          "type": "uint256"
        }
      ],
      "stateMutability": "view",
      "type": "function"
    },
    {
      "inputs": [],
      "name": "maticsRequiredForOneToken",
      "outputs": [
        {
          "internalType": "uint256",
          "name": "",
          "type": "uint256"
        }
      ],
      "stateMutability": "view",
      "type": "function"
    },
    {
      "inputs": [],
      "name": "owner",
      "outputs": [
        {
          "internalType": "address",
          "name": "",
          "type": "address"
        }
      ],
      "stateMutability": "view",
      "type": "function"
    },
    {
      "inputs": [],
      "name": "priceFeed",
      "outputs": [
        {
          "internalType": "contract AggregatorV3Interface",
          "name": "",
          "type": "address"
        }
      ],
      "stateMutability": "view",
      "type": "function"
    },
    {
      "inputs": [],
      "name": "priceFeedAddress",
      "outputs": [
        {
          "internalType": "address",
          "name": "",
          "type": "address"
        }
      ],
      "stateMutability": "view",
      "type": "function"
    },
    {
      "inputs": [
        {
          "internalType": "string",
          "name": "_query",
          "type": "string"
        },
        {
          "internalType": "string",
          "name": "_email",
          "type": "string"
        }
      ],
      "name": "purchaseTokens",
      "outputs": [],
      "stateMutability": "payable",
      "type": "function"
    },
    {
      "inputs": [],
      "name": "tokenAddress",
      "outputs": [
        {
          "internalType": "address",
          "name": "",
          "type": "address"
        }
      ],
      "stateMutability": "view",
      "type": "function"
    },
    {
      "inputs": [],
      "name": "tokensPurchase",
      "outputs": [
        {
          "internalType": "uint256",
          "name": "",
          "type": "uint256"
        }
      ],
      "stateMutability": "view",
      "type": "function"
    },
    {
      "inputs": [],
      "name": "userAddress",
      "outputs": [
        {
          "internalType": "address",
          "name": "",
          "type": "address"
        }
      ],
      "stateMutability": "view",
      "type": "function"
    }
  ],
  "transactionHash": "0x42c42694f6119e22f3da55da034538c50df04f1c6851ecbcc17e959895a64827",
  "args": [
    "0x03bbCAa3C2bA0B7CfC3f60d33812B075740F2FdE"
  ],
  "numDeployments": 49,
  "solcInputHash": "e5d20c08b8117570d1c6780cd00f78f5",
  "bytecode": "0x60806040523480156200001157600080fd5b506040516200133a3803806200133a83398181016040528101906200003791906200016a565b33600160006101000a81548173ffffffffffffffffffffffffffffffffffffffff021916908373ffffffffffffffffffffffffffffffffffffffff160217905550806000806101000a81548173ffffffffffffffffffffffffffffffffffffffff021916908373ffffffffffffffffffffffffffffffffffffffff16021790555080600860006101000a81548173ffffffffffffffffffffffffffffffffffffffff021916908373ffffffffffffffffffffffffffffffffffffffff160217905550506200019c565b600080fd5b600073ffffffffffffffffffffffffffffffffffffffff82169050919050565b6000620001328262000105565b9050919050565b620001448162000125565b81146200015057600080fd5b50565b600081519050620001648162000139565b92915050565b60006020828403121562000183576200018262000100565b5b6000620001938482850162000153565b91505092915050565b61118e80620001ac6000396000f3fe6080604052600436106100c15760003560e01c80638e46bf661161007f578063b69ef8a811610059578063b69ef8a814610226578063e0abca0b14610251578063e2a3d6941461027c578063e4128fb3146102ac576100c1565b80638e46bf66146101b957806398d5fdca146101e45780639d76ea58146101fb576100c1565b8062b3c03b146100c657806314896790146100e257806345ea451a1461010d5780635e01eb5a14610138578063741bef1a146101635780638da5cb5b1461018e575b600080fd5b6100e060048036038101906100db91906109f0565b6102d7565b005b3480156100ee57600080fd5b506100f761059b565b6040516101049190610a81565b60405180910390f35b34801561011957600080fd5b506101226105a1565b60405161012f9190610a81565b60405180910390f35b34801561014457600080fd5b5061014d6105a7565b60405161015a9190610add565b60405180910390f35b34801561016f57600080fd5b506101786105d1565b6040516101859190610b57565b60405180910390f35b34801561019a57600080fd5b506101a36105f7565b6040516101b09190610add565b60405180910390f35b3480156101c557600080fd5b506101ce61061d565b6040516101db9190610a81565b60405180910390f35b3480156101f057600080fd5b506101f9610623565b005b34801561020757600080fd5b506102106106c2565b60405161021d9190610add565b60405180910390f35b34801561023257600080fd5b5061023b6106e6565b6040516102489190610a81565b60405180910390f35b34801561025d57600080fd5b506102666106ec565b6040516102739190610add565b60405180910390f35b61029660048036038101906102919190610b72565b610712565b6040516102a39190610a81565b60405180910390f35b3480156102b857600080fd5b506102c16107ca565b6040516102ce9190610add565b60405180910390f35b600360009054906101000a900473ffffffffffffffffffffffffffffffffffffffff16600260006101000a81548173ffffffffffffffffffffffffffffffffffffffff021916908373ffffffffffffffffffffffffffffffffffffffff16021790555061036e670de0b6b3a7640000600260009054906101000a900473ffffffffffffffffffffffffffffffffffffffff166107f0565b600481905550600860009054906101000a900473ffffffffffffffffffffffffffffffffffffffff1673ffffffffffffffffffffffffffffffffffffffff166368fbe23e836040518263ffffffff1660e01b81526004016103cf9190610c3a565b600060405180830381865afa1580156103ec573d6000803e3d6000fd5b505050506040513d6000823e3d601f19601f820116820180604052508101906104159190610e5c565b61010001516009819055506009543461042e9190610f03565b60078190555034600581905550600860009054906101000a900473ffffffffffffffffffffffffffffffffffffffff1673ffffffffffffffffffffffffffffffffffffffff166323b872dd600160009054906101000a900473ffffffffffffffffffffffffffffffffffffffff16336007546040518463ffffffff1660e01b81526004016104be93929190610f34565b6020604051808303816000875af11580156104dd573d6000803e3d6000fd5b505050506040513d601f19601f820116820180604052508101906105019190610fa3565b50600860009054906101000a900473ffffffffffffffffffffffffffffffffffffffff1673ffffffffffffffffffffffffffffffffffffffff1663d816d5ae8360075433856040518563ffffffff1660e01b81526004016105659493929190610fd0565b600060405180830381600087803b15801561057f57600080fd5b505af1158015610593573d6000803e3d6000fd5b505050505050565b60075481565b60045481565b6000600660009054906101000a900473ffffffffffffffffffffffffffffffffffffffff16905090565b600260009054906101000a900473ffffffffffffffffffffffffffffffffffffffff1681565b600160009054906101000a900473ffffffffffffffffffffffffffffffffffffffff1681565b60095481565b600360009054906101000a900473ffffffffffffffffffffffffffffffffffffffff16600260006101000a81548173ffffffffffffffffffffffffffffffffffffffff021916908373ffffffffffffffffffffffffffffffffffffffff1602179055506106ba670de0b6b3a7640000600260009054906101000a900473ffffffffffffffffffffffffffffffffffffffff166107f0565b600481905550565b60008054906101000a900473ffffffffffffffffffffffffffffffffffffffff1681565b60055481565b600360009054906101000a900473ffffffffffffffffffffffffffffffffffffffff1681565b6000600860009054906101000a900473ffffffffffffffffffffffffffffffffffffffff1673ffffffffffffffffffffffffffffffffffffffff166368fbe23e836040518263ffffffff1660e01b815260040161076f9190610c3a565b600060405180830381865afa15801561078c573d6000803e3d6000fd5b505050506040513d6000823e3d601f19601f820116820180604052508101906107b59190610e5c565b61010001516009819055506009549050919050565b600660009054906101000a900473ffffffffffffffffffffffffffffffffffffffff1681565b6000808273ffffffffffffffffffffffffffffffffffffffff1663feaf968c6040518163ffffffff1660e01b815260040160a060405180830381865afa15801561083e573d6000803e3d6000fd5b505050506040513d601f19601f82011682018060405250810190610862919061109b565b5050509150506000670de0b6b3a7640000858361087f9190611116565b6108899190610f03565b9050809250505092915050565b6000604051905090565b600080fd5b600080fd5b600080fd5b600080fd5b6000601f19601f8301169050919050565b7f4e487b7100000000000000000000000000000000000000000000000000000000600052604160045260246000fd5b6108fd826108b4565b810181811067ffffffffffffffff8211171561091c5761091b6108c5565b5b80604052505050565b600061092f610896565b905061093b82826108f4565b919050565b600067ffffffffffffffff82111561095b5761095a6108c5565b5b610964826108b4565b9050602081019050919050565b82818337600083830152505050565b600061099361098e84610940565b610925565b9050828152602081018484840111156109af576109ae6108af565b5b6109ba848285610971565b509392505050565b600082601f8301126109d7576109d66108aa565b5b81356109e7848260208601610980565b91505092915050565b60008060408385031215610a0757610a066108a0565b5b600083013567ffffffffffffffff811115610a2557610a246108a5565b5b610a31858286016109c2565b925050602083013567ffffffffffffffff811115610a5257610a516108a5565b5b610a5e858286016109c2565b9150509250929050565b6000819050919050565b610a7b81610a68565b82525050565b6000602082019050610a966000830184610a72565b92915050565b600073ffffffffffffffffffffffffffffffffffffffff82169050919050565b6000610ac782610a9c565b9050919050565b610ad781610abc565b82525050565b6000602082019050610af26000830184610ace565b92915050565b6000819050919050565b6000610b1d610b18610b1384610a9c565b610af8565b610a9c565b9050919050565b6000610b2f82610b02565b9050919050565b6000610b4182610b24565b9050919050565b610b5181610b36565b82525050565b6000602082019050610b6c6000830184610b48565b92915050565b600060208284031215610b8857610b876108a0565b5b600082013567ffffffffffffffff811115610ba657610ba56108a5565b5b610bb2848285016109c2565b91505092915050565b600081519050919050565b600082825260208201905092915050565b60005b83811015610bf5578082015181840152602081019050610bda565b60008484015250505050565b6000610c0c82610bbb565b610c168185610bc6565b9350610c26818560208601610bd7565b610c2f816108b4565b840191505092915050565b60006020820190508181036000830152610c548184610c01565b905092915050565b600080fd5b600080fd5b6000610c79610c7484610940565b610925565b905082815260208101848484011115610c9557610c946108af565b5b610ca0848285610bd7565b509392505050565b600082601f830112610cbd57610cbc6108aa565b5b8151610ccd848260208601610c66565b91505092915050565b610cdf81610a68565b8114610cea57600080fd5b50565b600081519050610cfc81610cd6565b92915050565b60006101808284031215610d1957610d18610c5c565b5b610d24610180610925565b9050600082015167ffffffffffffffff811115610d4457610d43610c61565b5b610d5084828501610ca8565b600083015250602082015167ffffffffffffffff811115610d7457610d73610c61565b5b610d8084828501610ca8565b6020830152506040610d9484828501610ced565b6040830152506060610da884828501610ced565b6060830152506080610dbc84828501610ced565b60808301525060a0610dd084828501610ced565b60a08301525060c0610de484828501610ced565b60c08301525060e0610df884828501610ced565b60e083015250610100610e0d84828501610ced565b61010083015250610120610e2384828501610ced565b61012083015250610140610e3984828501610ced565b61014083015250610160610e4f84828501610ced565b6101608301525092915050565b600060208284031215610e7257610e716108a0565b5b600082015167ffffffffffffffff811115610e9057610e8f6108a5565b5b610e9c84828501610d02565b91505092915050565b7f4e487b7100000000000000000000000000000000000000000000000000000000600052601260045260246000fd5b7f4e487b7100000000000000000000000000000000000000000000000000000000600052601160045260246000fd5b6000610f0e82610a68565b9150610f1983610a68565b925082610f2957610f28610ea5565b5b828204905092915050565b6000606082019050610f496000830186610ace565b610f566020830185610ace565b610f636040830184610a72565b949350505050565b60008115159050919050565b610f8081610f6b565b8114610f8b57600080fd5b50565b600081519050610f9d81610f77565b92915050565b600060208284031215610fb957610fb86108a0565b5b6000610fc784828501610f8e565b91505092915050565b60006080820190508181036000830152610fea8187610c01565b9050610ff96020830186610a72565b6110066040830185610ace565b81810360608301526110188184610c01565b905095945050505050565b600069ffffffffffffffffffff82169050919050565b61104281611023565b811461104d57600080fd5b50565b60008151905061105f81611039565b92915050565b6000819050919050565b61107881611065565b811461108357600080fd5b50565b6000815190506110958161106f565b92915050565b600080600080600060a086880312156110b7576110b66108a0565b5b60006110c588828901611050565b95505060206110d688828901611086565b94505060406110e788828901610ced565b93505060606110f888828901610ced565b925050608061110988828901611050565b9150509295509295909350565b600061112182610a68565b915061112c83610a68565b925082820261113a81610a68565b9150828204841483151761115157611150610ed4565b5b509291505056fea264697066735822122091d1d365a169f0770027a6fb7334cea6e9e84501063a2e43603841bed5a57ef364736f6c63430008140033",
  "devdoc": {
    "kind": "dev",
    "methods": {},
    "version": 1
  },
  "userdoc": {
    "kind": "user",
    "methods": {},
    "version": 1
  },
  "storageLayout": {
    "storage": [
      {
        "astId": 1476,
        "contract": "contracts/TokenSale.sol:AssetTokenSale",
        "label": "tokenAddress",
        "offset": 0,
        "slot": "0",
        "type": "t_address"
      },
      {
        "astId": 1478,
        "contract": "contracts/TokenSale.sol:AssetTokenSale",
        "label": "owner",
        "offset": 0,
        "slot": "1",
        "type": "t_address"
      },
      {
        "astId": 1481,
        "contract": "contracts/TokenSale.sol:AssetTokenSale",
        "label": "priceFeed",
        "offset": 0,
        "slot": "2",
        "type": "t_contract(AggregatorV3Interface)45"
      },
      {
        "astId": 1483,
        "contract": "contracts/TokenSale.sol:AssetTokenSale",
        "label": "priceFeedAddress",
        "offset": 0,
        "slot": "3",
        "type": "t_address"
      },
      {
        "astId": 1485,
        "contract": "contracts/TokenSale.sol:AssetTokenSale",
        "label": "maticPrice",
        "offset": 0,
        "slot": "4",
        "type": "t_uint256"
      },
      {
        "astId": 1487,
        "contract": "contracts/TokenSale.sol:AssetTokenSale",
        "label": "balance",
        "offset": 0,
        "slot": "5",
        "type": "t_uint256"
      },
      {
        "astId": 1489,
        "contract": "contracts/TokenSale.sol:AssetTokenSale",
        "label": "userAddress",
        "offset": 0,
        "slot": "6",
        "type": "t_address"
      },
      {
        "astId": 1491,
        "contract": "contracts/TokenSale.sol:AssetTokenSale",
        "label": "tokensPurchase",
        "offset": 0,
        "slot": "7",
        "type": "t_uint256"
      },
      {
        "astId": 1494,
        "contract": "contracts/TokenSale.sol:AssetTokenSale",
        "label": "assetNewToken",
        "offset": 0,
        "slot": "8",
        "type": "t_contract(AssetNewToken)1470"
      },
      {
        "astId": 1496,
        "contract": "contracts/TokenSale.sol:AssetTokenSale",
        "label": "maticsRequiredForOneToken",
        "offset": 0,
        "slot": "9",
        "type": "t_uint256"
      }
    ],
    "types": {
      "t_address": {
        "encoding": "inplace",
        "label": "address",
        "numberOfBytes": "20"
      },
      "t_contract(AggregatorV3Interface)45": {
        "encoding": "inplace",
        "label": "contract AggregatorV3Interface",
        "numberOfBytes": "20"
      },
      "t_contract(AssetNewToken)1470": {
        "encoding": "inplace",
        "label": "contract AssetNewToken",
        "numberOfBytes": "20"
      },
      "t_uint256": {
        "encoding": "inplace",
        "label": "uint256",
        "numberOfBytes": "32"
      }
    }
  }
}