{
  "address": "0xE9a34B8253A67F7448595E176B9d7E52c42b2849",
  "abi": [
    {
      "inputs": [
        {
          "components": [
            {
              "internalType": "string",
              "name": "name",
              "type": "string"
            },
            {
              "internalType": "string",
              "name": "description",
              "type": "string"
            },
            {
              "internalType": "uint256",
              "name": "value",
              "type": "uint256"
            }
          ],
          "internalType": "struct AssetDetails",
          "name": "_assetDetails",
          "type": "tuple"
        },
        {
          "internalType": "address payable",
          "name": "_custodion",
          "type": "address"
        },
        {
          "internalType": "address",
          "name": "_tokenContractAddress",
          "type": "address"
        }
      ],
      "stateMutability": "nonpayable",
      "type": "constructor"
    },
    {
      "anonymous": false,
      "inputs": [
        {
          "indexed": true,
          "internalType": "address",
          "name": "from",
          "type": "address"
        },
        {
          "indexed": false,
          "internalType": "uint256",
          "name": "amount",
          "type": "uint256"
        }
      ],
      "name": "Burn",
      "type": "event"
    },
    {
      "anonymous": false,
      "inputs": [
        {
          "indexed": true,
          "internalType": "address",
          "name": "to",
          "type": "address"
        },
        {
          "indexed": false,
          "internalType": "uint256",
          "name": "amount",
          "type": "uint256"
        },
        {
          "components": [
            {
              "internalType": "string",
              "name": "name",
              "type": "string"
            },
            {
              "internalType": "string",
              "name": "description",
              "type": "string"
            },
            {
              "internalType": "uint256",
              "name": "value",
              "type": "uint256"
            }
          ],
          "indexed": false,
          "internalType": "struct AssetDetails",
          "name": "assetInfo",
          "type": "tuple"
        }
      ],
      "name": "Mint",
      "type": "event"
    },
    {
      "inputs": [],
      "name": "custodian",
      "outputs": [
        {
          "internalType": "address payable",
          "name": "",
          "type": "address"
        }
      ],
      "stateMutability": "view",
      "type": "function"
    },
    {
      "inputs": [],
      "name": "getAssetDetails",
      "outputs": [
        {
          "components": [
            {
              "internalType": "string",
              "name": "name",
              "type": "string"
            },
            {
              "internalType": "string",
              "name": "description",
              "type": "string"
            },
            {
              "internalType": "uint256",
              "name": "value",
              "type": "uint256"
            }
          ],
          "internalType": "struct AssetDetails",
          "name": "",
          "type": "tuple"
        }
      ],
      "stateMutability": "view",
      "type": "function"
    },
    {
      "inputs": [],
      "name": "owner",
      "outputs": [
        {
          "internalType": "address",
          "name": "",
          "type": "address"
        }
      ],
      "stateMutability": "view",
      "type": "function"
    },
    {
      "inputs": [],
      "name": "tokenContractAddress",
      "outputs": [
        {
          "internalType": "address",
          "name": "",
          "type": "address"
        }
      ],
      "stateMutability": "view",
      "type": "function"
    }
  ],
  "transactionHash": "0x6b3aa9208282372618e204a43fbbca4b76983421d89598d7a92ff9aa3ed46ef1",
  "args": [
    {
      "name": "State Building",
      "description": "America's state building. Very long and big",
      "value": 800000
    },
    "0x9F5e972d10C79A86f9FC2C4DC2463cf2E411B536",
    "0x40C0aacbE51Da31A9D3D7D10b76c9ed8A51D7aD7"
  ],
  "numDeployments": 7,
  "solcInputHash": "c33ce6d08099b9c54559e64f59277f08",
  "bytecode": "0x60c06040523480156200001157600080fd5b5060405162000e6138038062000e61833981810160405281019062000037919062000498565b8260008082015181600001908162000050919062000754565b50602082015181600101908162000068919062000754565b50604082015181600201559050508173ffffffffffffffffffffffffffffffffffffffff1660808173ffffffffffffffffffffffffffffffffffffffff168152505080600460006101000a81548173ffffffffffffffffffffffffffffffffffffffff021916908373ffffffffffffffffffffffffffffffffffffffff16021790555080600360006101000a81548173ffffffffffffffffffffffffffffffffffffffff021916908373ffffffffffffffffffffffffffffffffffffffff1602179055503373ffffffffffffffffffffffffffffffffffffffff1660a08173ffffffffffffffffffffffffffffffffffffffff16815250505050506200083b565b6000604051905090565b600080fd5b600080fd5b600080fd5b6000601f19601f8301169050919050565b7f4e487b7100000000000000000000000000000000000000000000000000000000600052604160045260246000fd5b620001cd8262000182565b810181811067ffffffffffffffff82111715620001ef57620001ee62000193565b5b80604052505050565b60006200020462000169565b9050620002128282620001c2565b919050565b600080fd5b600080fd5b600080fd5b600067ffffffffffffffff82111562000244576200024362000193565b5b6200024f8262000182565b9050602081019050919050565b60005b838110156200027c5780820151818401526020810190506200025f565b60008484015250505050565b60006200029f620002998462000226565b620001f8565b905082815260208101848484011115620002be57620002bd62000221565b5b620002cb8482856200025c565b509392505050565b600082601f830112620002eb57620002ea6200021c565b5b8151620002fd84826020860162000288565b91505092915050565b6000819050919050565b6200031b8162000306565b81146200032757600080fd5b50565b6000815190506200033b8162000310565b92915050565b6000606082840312156200035a57620003596200017d565b5b620003666060620001f8565b9050600082015167ffffffffffffffff81111562000389576200038862000217565b5b6200039784828501620002d3565b600083015250602082015167ffffffffffffffff811115620003be57620003bd62000217565b5b620003cc84828501620002d3565b6020830152506040620003e2848285016200032a565b60408301525092915050565b600073ffffffffffffffffffffffffffffffffffffffff82169050919050565b60006200041b82620003ee565b9050919050565b6200042d816200040e565b81146200043957600080fd5b50565b6000815190506200044d8162000422565b92915050565b60006200046082620003ee565b9050919050565b620004728162000453565b81146200047e57600080fd5b50565b600081519050620004928162000467565b92915050565b600080600060608486031215620004b457620004b362000173565b5b600084015167ffffffffffffffff811115620004d557620004d462000178565b5b620004e38682870162000341565b9350506020620004f6868287016200043c565b9250506040620005098682870162000481565b9150509250925092565b600081519050919050565b7f4e487b7100000000000000000000000000000000000000000000000000000000600052602260045260246000fd5b600060028204905060018216806200056657607f821691505b6020821081036200057c576200057b6200051e565b5b50919050565b60008190508160005260206000209050919050565b60006020601f8301049050919050565b600082821b905092915050565b600060088302620005e67fffffffffffffffffffffffffffffffffffffffffffffffffffffffffffffffff82620005a7565b620005f28683620005a7565b95508019841693508086168417925050509392505050565b6000819050919050565b6000620006356200062f620006298462000306565b6200060a565b62000306565b9050919050565b6000819050919050565b620006518362000614565b6200066962000660826200063c565b848454620005b4565b825550505050565b600090565b6200068062000671565b6200068d81848462000646565b505050565b5b81811015620006b557620006a960008262000676565b60018101905062000693565b5050565b601f8211156200070457620006ce8162000582565b620006d98462000597565b81016020851015620006e9578190505b62000701620006f88562000597565b83018262000692565b50505b505050565b600082821c905092915050565b6000620007296000198460080262000709565b1980831691505092915050565b600062000744838362000716565b9150826002028217905092915050565b6200075f8262000513565b67ffffffffffffffff8111156200077b576200077a62000193565b5b6200078782546200054d565b62000794828285620006b9565b600060209050601f831160018114620007cc5760008415620007b7578287015190505b620007c3858262000736565b86555062000833565b601f198416620007dc8662000582565b60005b828110156200080657848901518255600182019150602085019450602081019050620007df565b8683101562000826578489015162000822601f89168262000716565b8355505b6001600288020188555050505b505050505050565b60805160a0516105fb620008666000396000818160f701526102eb0152600060cb01526105fb6000f3fe608060405234801561001057600080fd5b506004361061004c5760003560e01c8063375b74c3146100515780635c5a0f931461006f57806382edaf941461008d5780638da5cb5b146100ab575b600080fd5b6100596100c9565b604051610066919061036f565b60405180910390f35b6100776100ed565b604051610084919061048a565b60405180910390f35b6100956102c3565b6040516100a291906104cd565b60405180910390f35b6100b36102e9565b6040516100c091906104cd565b60405180910390f35b7f000000000000000000000000000000000000000000000000000000000000000081565b6100f561030d565b7f000000000000000000000000000000000000000000000000000000000000000073ffffffffffffffffffffffffffffffffffffffff163373ffffffffffffffffffffffffffffffffffffffff1614610183576040517f08c379a000000000000000000000000000000000000000000000000000000000815260040161017a90610545565b60405180910390fd5b60006040518060600160405290816000820180546101a090610594565b80601f01602080910402602001604051908101604052809291908181526020018280546101cc90610594565b80156102195780601f106101ee57610100808354040283529160200191610219565b820191906000526020600020905b8154815290600101906020018083116101fc57829003601f168201915b5050505050815260200160018201805461023290610594565b80601f016020809104026020016040519081016040528092919081815260200182805461025e90610594565b80156102ab5780601f10610280576101008083540402835291602001916102ab565b820191906000526020600020905b81548152906001019060200180831161028e57829003601f168201915b50505050508152602001600282015481525050905090565b600460009054906101000a900473ffffffffffffffffffffffffffffffffffffffff1681565b7f000000000000000000000000000000000000000000000000000000000000000081565b60405180606001604052806060815260200160608152602001600081525090565b600073ffffffffffffffffffffffffffffffffffffffff82169050919050565b60006103598261032e565b9050919050565b6103698161034e565b82525050565b60006020820190506103846000830184610360565b92915050565b600081519050919050565b600082825260208201905092915050565b60005b838110156103c45780820151818401526020810190506103a9565b60008484015250505050565b6000601f19601f8301169050919050565b60006103ec8261038a565b6103f68185610395565b93506104068185602086016103a6565b61040f816103d0565b840191505092915050565b6000819050919050565b61042d8161041a565b82525050565b6000606083016000830151848203600086015261045082826103e1565b9150506020830151848203602086015261046a82826103e1565b915050604083015161047f6040860182610424565b508091505092915050565b600060208201905081810360008301526104a48184610433565b905092915050565b60006104b78261032e565b9050919050565b6104c7816104ac565b82525050565b60006020820190506104e260008301846104be565b92915050565b600082825260208201905092915050565b7f4e6f7420746865206f776e657200000000000000000000000000000000000000600082015250565b600061052f600d836104e8565b915061053a826104f9565b602082019050919050565b6000602082019050818103600083015261055e81610522565b9050919050565b7f4e487b7100000000000000000000000000000000000000000000000000000000600052602260045260246000fd5b600060028204905060018216806105ac57607f821691505b6020821081036105bf576105be610565565b5b5091905056fea26469706673582212203657dad9fc7576ca8b20fb32d6b83743eea201d79ced84081d8763261a2fba0d64736f6c63430008140033",
  "devdoc": {
    "kind": "dev",
    "methods": {},
    "version": 1
  },
  "userdoc": {
    "kind": "user",
    "methods": {},
    "version": 1
  },
  "storageLayout": {
    "storage": [
      {
        "astId": 795,
        "contract": "contracts/CreateAssetToken.sol:AssetToken",
        "label": "assetDetails",
        "offset": 0,
        "slot": "0",
        "type": "t_struct(AssetDetails)788_storage"
      },
      {
        "astId": 798,
        "contract": "contracts/CreateAssetToken.sol:AssetToken",
        "label": "myToken",
        "offset": 0,
        "slot": "3",
        "type": "t_contract(MyToken)937"
      },
      {
        "astId": 800,
        "contract": "contracts/CreateAssetToken.sol:AssetToken",
        "label": "tokenContractAddress",
        "offset": 0,
        "slot": "4",
        "type": "t_address"
      }
    ],
    "types": {
      "t_address": {
        "encoding": "inplace",
        "label": "address",
        "numberOfBytes": "20"
      },
      "t_contract(MyToken)937": {
        "encoding": "inplace",
        "label": "contract MyToken",
        "numberOfBytes": "20"
      },
      "t_string_storage": {
        "encoding": "bytes",
        "label": "string",
        "numberOfBytes": "32"
      },
      "t_struct(AssetDetails)788_storage": {
        "encoding": "inplace",
        "label": "struct AssetDetails",
        "members": [
          {
            "astId": 783,
            "contract": "contracts/CreateAssetToken.sol:AssetToken",
            "label": "name",
            "offset": 0,
            "slot": "0",
            "type": "t_string_storage"
          },
          {
            "astId": 785,
            "contract": "contracts/CreateAssetToken.sol:AssetToken",
            "label": "description",
            "offset": 0,
            "slot": "1",
            "type": "t_string_storage"
          },
          {
            "astId": 787,
            "contract": "contracts/CreateAssetToken.sol:AssetToken",
            "label": "value",
            "offset": 0,
            "slot": "2",
            "type": "t_uint256"
          }
        ],
        "numberOfBytes": "96"
      },
      "t_uint256": {
        "encoding": "inplace",
        "label": "uint256",
        "numberOfBytes": "32"
      }
    }
  }
}