{
  "address": "0xB9aDb041c3707C479Ad32Cc1055c246d668FE353",
  "abi": [
    {
      "inputs": [
        {
          "internalType": "string",
          "name": "_tokenName",
          "type": "string"
        },
        {
          "internalType": "string",
          "name": "_symbol",
          "type": "string"
        },
        {
          "internalType": "uint256",
          "name": "_divisibility",
          "type": "uint256"
        },
        {
          "internalType": "uint256",
          "name": "_initialSupply",
          "type": "uint256"
        }
      ],
      "stateMutability": "nonpayable",
      "type": "constructor"
    },
    {
      "inputs": [
        {
          "internalType": "address",
          "name": "spender",
          "type": "address"
        },
        {
          "internalType": "uint256",
          "name": "allowance",
          "type": "uint256"
        },
        {
          "internalType": "uint256",
          "name": "needed",
          "type": "uint256"
        }
      ],
      "name": "ERC20InsufficientAllowance",
      "type": "error"
    },
    {
      "inputs": [
        {
          "internalType": "address",
          "name": "sender",
          "type": "address"
        },
        {
          "internalType": "uint256",
          "name": "balance",
          "type": "uint256"
        },
        {
          "internalType": "uint256",
          "name": "needed",
          "type": "uint256"
        }
      ],
      "name": "ERC20InsufficientBalance",
      "type": "error"
    },
    {
      "inputs": [
        {
          "internalType": "address",
          "name": "approver",
          "type": "address"
        }
      ],
      "name": "ERC20InvalidApprover",
      "type": "error"
    },
    {
      "inputs": [
        {
          "internalType": "address",
          "name": "receiver",
          "type": "address"
        }
      ],
      "name": "ERC20InvalidReceiver",
      "type": "error"
    },
    {
      "inputs": [
        {
          "internalType": "address",
          "name": "sender",
          "type": "address"
        }
      ],
      "name": "ERC20InvalidSender",
      "type": "error"
    },
    {
      "inputs": [
        {
          "internalType": "address",
          "name": "spender",
          "type": "address"
        }
      ],
      "name": "ERC20InvalidSpender",
      "type": "error"
    },
    {
      "anonymous": false,
      "inputs": [
        {
          "indexed": true,
          "internalType": "address",
          "name": "owner",
          "type": "address"
        },
        {
          "indexed": true,
          "internalType": "address",
          "name": "spender",
          "type": "address"
        },
        {
          "indexed": false,
          "internalType": "uint256",
          "name": "value",
          "type": "uint256"
        }
      ],
      "name": "Approval",
      "type": "event"
    },
    {
      "anonymous": false,
      "inputs": [
        {
          "indexed": true,
          "internalType": "address",
          "name": "from",
          "type": "address"
        },
        {
          "indexed": true,
          "internalType": "address",
          "name": "to",
          "type": "address"
        },
        {
          "indexed": false,
          "internalType": "uint256",
          "name": "value",
          "type": "uint256"
        }
      ],
      "name": "Transfer",
      "type": "event"
    },
    {
      "inputs": [
        {
          "internalType": "address",
          "name": "owner",
          "type": "address"
        },
        {
          "internalType": "address",
          "name": "spender",
          "type": "address"
        }
      ],
      "name": "allowance",
      "outputs": [
        {
          "internalType": "uint256",
          "name": "",
          "type": "uint256"
        }
      ],
      "stateMutability": "view",
      "type": "function"
    },
    {
      "inputs": [
        {
          "internalType": "address",
          "name": "spender",
          "type": "address"
        },
        {
          "internalType": "uint256",
          "name": "value",
          "type": "uint256"
        }
      ],
      "name": "approve",
      "outputs": [
        {
          "internalType": "bool",
          "name": "",
          "type": "bool"
        }
      ],
      "stateMutability": "nonpayable",
      "type": "function"
    },
    {
      "inputs": [
        {
          "internalType": "address",
          "name": "account",
          "type": "address"
        }
      ],
      "name": "balanceOf",
      "outputs": [
        {
          "internalType": "uint256",
          "name": "",
          "type": "uint256"
        }
      ],
      "stateMutability": "view",
      "type": "function"
    },
    {
      "inputs": [],
      "name": "decimals",
      "outputs": [
        {
          "internalType": "uint8",
          "name": "",
          "type": "uint8"
        }
      ],
      "stateMutability": "view",
      "type": "function"
    },
    {
      "inputs": [],
      "name": "getTokenName",
      "outputs": [
        {
          "internalType": "string",
          "name": "",
          "type": "string"
        }
      ],
      "stateMutability": "view",
      "type": "function"
    },
    {
      "inputs": [],
      "name": "i_owner",
      "outputs": [
        {
          "internalType": "address",
          "name": "",
          "type": "address"
        }
      ],
      "stateMutability": "view",
      "type": "function"
    },
    {
      "inputs": [],
      "name": "name",
      "outputs": [
        {
          "internalType": "string",
          "name": "",
          "type": "string"
        }
      ],
      "stateMutability": "view",
      "type": "function"
    },
    {
      "inputs": [],
      "name": "symbol",
      "outputs": [
        {
          "internalType": "string",
          "name": "",
          "type": "string"
        }
      ],
      "stateMutability": "view",
      "type": "function"
    },
    {
      "inputs": [],
      "name": "totalSupply",
      "outputs": [
        {
          "internalType": "uint256",
          "name": "",
          "type": "uint256"
        }
      ],
      "stateMutability": "view",
      "type": "function"
    },
    {
      "inputs": [
        {
          "internalType": "address",
          "name": "to",
          "type": "address"
        },
        {
          "internalType": "uint256",
          "name": "value",
          "type": "uint256"
        }
      ],
      "name": "transfer",
      "outputs": [
        {
          "internalType": "bool",
          "name": "",
          "type": "bool"
        }
      ],
      "stateMutability": "nonpayable",
      "type": "function"
    },
    {
      "inputs": [
        {
          "internalType": "address",
          "name": "from",
          "type": "address"
        },
        {
          "internalType": "address",
          "name": "to",
          "type": "address"
        },
        {
          "internalType": "uint256",
          "name": "value",
          "type": "uint256"
        }
      ],
      "name": "transferFrom",
      "outputs": [
        {
          "internalType": "bool",
          "name": "",
          "type": "bool"
        }
      ],
      "stateMutability": "nonpayable",
      "type": "function"
    }
  ],
  "transactionHash": "0xb4f94d8d141ab8ff51850fd454d68efd85c5d0e9ed714b15c4d9cfccbe09f072",
  "args": [
    "amdcoin",
    "amd",
    3,
    1000000
  ],
  "numDeployments": 9,
  "solcInputHash": "ff99bcb2083d6df6eda8951548587f97",
  "bytecode": "0x60a06040523480156200001157600080fd5b50604051620019a5380380620019a583398181016040528101906200003791906200054f565b838381600390816200004a919062000840565b5080600490816200005c919062000840565b5050503373ffffffffffffffffffffffffffffffffffffffff1660808173ffffffffffffffffffffffffffffffffffffffff1681525050620000ba33670de0b6b3a764000083620000ae919062000956565b620000c460201b60201c565b5050505062000aa9565b600073ffffffffffffffffffffffffffffffffffffffff168273ffffffffffffffffffffffffffffffffffffffff1603620001395760006040517fec442f05000000000000000000000000000000000000000000000000000000008152600401620001309190620009e6565b60405180910390fd5b6200014d600083836200015160201b60201c565b5050565b600073ffffffffffffffffffffffffffffffffffffffff168373ffffffffffffffffffffffffffffffffffffffff1603620001a75780600260008282546200019a919062000a03565b925050819055506200027d565b60008060008573ffffffffffffffffffffffffffffffffffffffff1673ffffffffffffffffffffffffffffffffffffffff1681526020019081526020016000205490508181101562000236578381836040517fe450d38c0000000000000000000000000000000000000000000000000000000081526004016200022d9392919062000a4f565b60405180910390fd5b8181036000808673ffffffffffffffffffffffffffffffffffffffff1673ffffffffffffffffffffffffffffffffffffffff16815260200190815260200160002081905550505b600073ffffffffffffffffffffffffffffffffffffffff168273ffffffffffffffffffffffffffffffffffffffff1603620002c8578060026000828254039250508190555062000315565b806000808473ffffffffffffffffffffffffffffffffffffffff1673ffffffffffffffffffffffffffffffffffffffff168152602001908152602001600020600082825401925050819055505b8173ffffffffffffffffffffffffffffffffffffffff168373ffffffffffffffffffffffffffffffffffffffff167fddf252ad1be2c89b69c2b068fc378daa952ba7f163c4a11628f55a4df523b3ef8360405162000374919062000a8c565b60405180910390a3505050565b6000604051905090565b600080fd5b600080fd5b600080fd5b600080fd5b6000601f19601f8301169050919050565b7f4e487b7100000000000000000000000000000000000000000000000000000000600052604160045260246000fd5b620003ea826200039f565b810181811067ffffffffffffffff821117156200040c576200040b620003b0565b5b80604052505050565b60006200042162000381565b90506200042f8282620003df565b919050565b600067ffffffffffffffff821115620004525762000451620003b0565b5b6200045d826200039f565b9050602081019050919050565b60005b838110156200048a5780820151818401526020810190506200046d565b60008484015250505050565b6000620004ad620004a78462000434565b62000415565b905082815260208101848484011115620004cc57620004cb6200039a565b5b620004d98482856200046a565b509392505050565b600082601f830112620004f957620004f862000395565b5b81516200050b84826020860162000496565b91505092915050565b6000819050919050565b620005298162000514565b81146200053557600080fd5b50565b60008151905062000549816200051e565b92915050565b600080600080608085870312156200056c576200056b6200038b565b5b600085015167ffffffffffffffff8111156200058d576200058c62000390565b5b6200059b87828801620004e1565b945050602085015167ffffffffffffffff811115620005bf57620005be62000390565b5b620005cd87828801620004e1565b9350506040620005e08782880162000538565b9250506060620005f38782880162000538565b91505092959194509250565b600081519050919050565b7f4e487b7100000000000000000000000000000000000000000000000000000000600052602260045260246000fd5b600060028204905060018216806200065257607f821691505b6020821081036200066857620006676200060a565b5b50919050565b60008190508160005260206000209050919050565b60006020601f8301049050919050565b600082821b905092915050565b600060088302620006d27fffffffffffffffffffffffffffffffffffffffffffffffffffffffffffffffff8262000693565b620006de868362000693565b95508019841693508086168417925050509392505050565b6000819050919050565b6000620007216200071b620007158462000514565b620006f6565b62000514565b9050919050565b6000819050919050565b6200073d8362000700565b620007556200074c8262000728565b848454620006a0565b825550505050565b600090565b6200076c6200075d565b6200077981848462000732565b505050565b5b81811015620007a1576200079560008262000762565b6001810190506200077f565b5050565b601f821115620007f057620007ba816200066e565b620007c58462000683565b81016020851015620007d5578190505b620007ed620007e48562000683565b8301826200077e565b50505b505050565b600082821c905092915050565b60006200081560001984600802620007f5565b1980831691505092915050565b600062000830838362000802565b9150826002028217905092915050565b6200084b82620005ff565b67ffffffffffffffff811115620008675762000866620003b0565b5b62000873825462000639565b62000880828285620007a5565b600060209050601f831160018114620008b85760008415620008a3578287015190505b620008af858262000822565b8655506200091f565b601f198416620008c8866200066e565b60005b82811015620008f257848901518255600182019150602085019450602081019050620008cb565b868310156200091257848901516200090e601f89168262000802565b8355505b6001600288020188555050505b505050505050565b7f4e487b7100000000000000000000000000000000000000000000000000000000600052601160045260246000fd5b6000620009638262000514565b9150620009708362000514565b9250828202620009808162000514565b915082820484148315176200099a576200099962000927565b5b5092915050565b600073ffffffffffffffffffffffffffffffffffffffff82169050919050565b6000620009ce82620009a1565b9050919050565b620009e081620009c1565b82525050565b6000602082019050620009fd6000830184620009d5565b92915050565b600062000a108262000514565b915062000a1d8362000514565b925082820190508082111562000a385762000a3762000927565b5b92915050565b62000a498162000514565b82525050565b600060608201905062000a666000830186620009d5565b62000a75602083018562000a3e565b62000a84604083018462000a3e565b949350505050565b600060208201905062000aa3600083018462000a3e565b92915050565b608051610ee062000ac5600039600061045d0152610ee06000f3fe608060405234801561001057600080fd5b50600436106100a95760003560e01c806370a082311161007157806370a0823114610168578063862b092b1461019857806395d89b41146101b6578063a9059cbb146101d4578063dba6335f14610204578063dd62ed3e14610222576100a9565b806306fdde03146100ae578063095ea7b3146100cc57806318160ddd146100fc57806323b872dd1461011a578063313ce5671461014a575b600080fd5b6100b6610252565b6040516100c39190610b34565b60405180910390f35b6100e660048036038101906100e19190610bef565b6102e4565b6040516100f39190610c4a565b60405180910390f35b610104610307565b6040516101119190610c74565b60405180910390f35b610134600480360381019061012f9190610c8f565b610311565b6040516101419190610c4a565b60405180910390f35b610152610340565b60405161015f9190610cfe565b60405180910390f35b610182600480360381019061017d9190610d19565b610349565b60405161018f9190610c74565b60405180910390f35b6101a0610391565b6040516101ad9190610b34565b60405180910390f35b6101be6103a6565b6040516101cb9190610b34565b60405180910390f35b6101ee60048036038101906101e99190610bef565b610438565b6040516101fb9190610c4a565b60405180910390f35b61020c61045b565b6040516102199190610d55565b60405180910390f35b61023c60048036038101906102379190610d70565b61047f565b6040516102499190610c74565b60405180910390f35b60606003805461026190610ddf565b80601f016020809104026020016040519081016040528092919081815260200182805461028d90610ddf565b80156102da5780601f106102af576101008083540402835291602001916102da565b820191906000526020600020905b8154815290600101906020018083116102bd57829003601f168201915b5050505050905090565b6000806102ef610506565b90506102fc81858561050e565b600191505092915050565b6000600254905090565b60008061031c610506565b9050610329858285610520565b6103348585856105b4565b60019150509392505050565b60006012905090565b60008060008373ffffffffffffffffffffffffffffffffffffffff1673ffffffffffffffffffffffffffffffffffffffff168152602001908152602001600020549050919050565b6060600061039d610252565b90508091505090565b6060600480546103b590610ddf565b80601f01602080910402602001604051908101604052809291908181526020018280546103e190610ddf565b801561042e5780601f106104035761010080835404028352916020019161042e565b820191906000526020600020905b81548152906001019060200180831161041157829003601f168201915b5050505050905090565b600080610443610506565b90506104508185856105b4565b600191505092915050565b7f000000000000000000000000000000000000000000000000000000000000000081565b6000600160008473ffffffffffffffffffffffffffffffffffffffff1673ffffffffffffffffffffffffffffffffffffffff16815260200190815260200160002060008373ffffffffffffffffffffffffffffffffffffffff1673ffffffffffffffffffffffffffffffffffffffff16815260200190815260200160002054905092915050565b600033905090565b61051b83838360016106a8565b505050565b600061052c848461047f565b90507fffffffffffffffffffffffffffffffffffffffffffffffffffffffffffffffff81146105ae578181101561059e578281836040517ffb8f41b200000000000000000000000000000000000000000000000000000000815260040161059593929190610e10565b60405180910390fd5b6105ad848484840360006106a8565b5b50505050565b600073ffffffffffffffffffffffffffffffffffffffff168373ffffffffffffffffffffffffffffffffffffffff16036106265760006040517f96c6fd1e00000000000000000000000000000000000000000000000000000000815260040161061d9190610d55565b60405180910390fd5b600073ffffffffffffffffffffffffffffffffffffffff168273ffffffffffffffffffffffffffffffffffffffff16036106985760006040517fec442f0500000000000000000000000000000000000000000000000000000000815260040161068f9190610d55565b60405180910390fd5b6106a383838361087f565b505050565b600073ffffffffffffffffffffffffffffffffffffffff168473ffffffffffffffffffffffffffffffffffffffff160361071a5760006040517fe602df050000000000000000000000000000000000000000000000000000000081526004016107119190610d55565b60405180910390fd5b600073ffffffffffffffffffffffffffffffffffffffff168373ffffffffffffffffffffffffffffffffffffffff160361078c5760006040517f94280d620000000000000000000000000000000000000000000000000000000081526004016107839190610d55565b60405180910390fd5b81600160008673ffffffffffffffffffffffffffffffffffffffff1673ffffffffffffffffffffffffffffffffffffffff16815260200190815260200160002060008573ffffffffffffffffffffffffffffffffffffffff1673ffffffffffffffffffffffffffffffffffffffff168152602001908152602001600020819055508015610879578273ffffffffffffffffffffffffffffffffffffffff168473ffffffffffffffffffffffffffffffffffffffff167f8c5be1e5ebec7d5bd14f71427d1e84f3dd0314c0f7b2291e5b200ac8c7c3b925846040516108709190610c74565b60405180910390a35b50505050565b600073ffffffffffffffffffffffffffffffffffffffff168373ffffffffffffffffffffffffffffffffffffffff16036108d15780600260008282546108c59190610e76565b925050819055506109a4565b60008060008573ffffffffffffffffffffffffffffffffffffffff1673ffffffffffffffffffffffffffffffffffffffff1681526020019081526020016000205490508181101561095d578381836040517fe450d38c00000000000000000000000000000000000000000000000000000000815260040161095493929190610e10565b60405180910390fd5b8181036000808673ffffffffffffffffffffffffffffffffffffffff1673ffffffffffffffffffffffffffffffffffffffff16815260200190815260200160002081905550505b600073ffffffffffffffffffffffffffffffffffffffff168273ffffffffffffffffffffffffffffffffffffffff16036109ed5780600260008282540392505081905550610a3a565b806000808473ffffffffffffffffffffffffffffffffffffffff1673ffffffffffffffffffffffffffffffffffffffff168152602001908152602001600020600082825401925050819055505b8173ffffffffffffffffffffffffffffffffffffffff168373ffffffffffffffffffffffffffffffffffffffff167fddf252ad1be2c89b69c2b068fc378daa952ba7f163c4a11628f55a4df523b3ef83604051610a979190610c74565b60405180910390a3505050565b600081519050919050565b600082825260208201905092915050565b60005b83811015610ade578082015181840152602081019050610ac3565b60008484015250505050565b6000601f19601f8301169050919050565b6000610b0682610aa4565b610b108185610aaf565b9350610b20818560208601610ac0565b610b2981610aea565b840191505092915050565b60006020820190508181036000830152610b4e8184610afb565b905092915050565b600080fd5b600073ffffffffffffffffffffffffffffffffffffffff82169050919050565b6000610b8682610b5b565b9050919050565b610b9681610b7b565b8114610ba157600080fd5b50565b600081359050610bb381610b8d565b92915050565b6000819050919050565b610bcc81610bb9565b8114610bd757600080fd5b50565b600081359050610be981610bc3565b92915050565b60008060408385031215610c0657610c05610b56565b5b6000610c1485828601610ba4565b9250506020610c2585828601610bda565b9150509250929050565b60008115159050919050565b610c4481610c2f565b82525050565b6000602082019050610c5f6000830184610c3b565b92915050565b610c6e81610bb9565b82525050565b6000602082019050610c896000830184610c65565b92915050565b600080600060608486031215610ca857610ca7610b56565b5b6000610cb686828701610ba4565b9350506020610cc786828701610ba4565b9250506040610cd886828701610bda565b9150509250925092565b600060ff82169050919050565b610cf881610ce2565b82525050565b6000602082019050610d136000830184610cef565b92915050565b600060208284031215610d2f57610d2e610b56565b5b6000610d3d84828501610ba4565b91505092915050565b610d4f81610b7b565b82525050565b6000602082019050610d6a6000830184610d46565b92915050565b60008060408385031215610d8757610d86610b56565b5b6000610d9585828601610ba4565b9250506020610da685828601610ba4565b9150509250929050565b7f4e487b7100000000000000000000000000000000000000000000000000000000600052602260045260246000fd5b60006002820490506001821680610df757607f821691505b602082108103610e0a57610e09610db0565b5b50919050565b6000606082019050610e256000830186610d46565b610e326020830185610c65565b610e3f6040830184610c65565b949350505050565b7f4e487b7100000000000000000000000000000000000000000000000000000000600052601160045260246000fd5b6000610e8182610bb9565b9150610e8c83610bb9565b9250828201905080821115610ea457610ea3610e47565b5b9291505056fea2646970667358221220780188712593778ee941868673e3297cf425a1aba1bf04def88e7daae5be00a964736f6c63430008140033",
  "devdoc": {
    "errors": {
      "ERC20InsufficientAllowance(address,uint256,uint256)": [
        {
          "details": "Indicates a failure with the `spender`s `allowance`. Used in transfers.",
          "params": {
            "allowance": "Amount of tokens a `spender` is allowed to operate with.",
            "needed": "Minimum amount required to perform a transfer.",
            "spender": "Address that may be allowed to operate on tokens without being their owner."
          }
        }
      ],
      "ERC20InsufficientBalance(address,uint256,uint256)": [
        {
          "details": "Indicates an error related to the current `balance` of a `sender`. Used in transfers.",
          "params": {
            "balance": "Current balance for the interacting account.",
            "needed": "Minimum amount required to perform a transfer.",
            "sender": "Address whose tokens are being transferred."
          }
        }
      ],
      "ERC20InvalidApprover(address)": [
        {
          "details": "Indicates a failure with the `approver` of a token to be approved. Used in approvals.",
          "params": {
            "approver": "Address initiating an approval operation."
          }
        }
      ],
      "ERC20InvalidReceiver(address)": [
        {
          "details": "Indicates a failure with the token `receiver`. Used in transfers.",
          "params": {
            "receiver": "Address to which tokens are being transferred."
          }
        }
      ],
      "ERC20InvalidSender(address)": [
        {
          "details": "Indicates a failure with the token `sender`. Used in transfers.",
          "params": {
            "sender": "Address whose tokens are being transferred."
          }
        }
      ],
      "ERC20InvalidSpender(address)": [
        {
          "details": "Indicates a failure with the `spender` to be approved. Used in approvals.",
          "params": {
            "spender": "Address that may be allowed to operate on tokens without being their owner."
          }
        }
      ]
    },
    "events": {
      "Approval(address,address,uint256)": {
        "details": "Emitted when the allowance of a `spender` for an `owner` is set by a call to {approve}. `value` is the new allowance."
      },
      "Transfer(address,address,uint256)": {
        "details": "Emitted when `value` tokens are moved from one account (`from`) to another (`to`). Note that `value` may be zero."
      }
    },
    "kind": "dev",
    "methods": {
      "allowance(address,address)": {
        "details": "See {IERC20-allowance}."
      },
      "approve(address,uint256)": {
        "details": "See {IERC20-approve}. NOTE: If `value` is the maximum `uint256`, the allowance is not updated on `transferFrom`. This is semantically equivalent to an infinite approval. Requirements: - `spender` cannot be the zero address."
      },
      "balanceOf(address)": {
        "details": "See {IERC20-balanceOf}."
      },
      "decimals()": {
        "details": "Returns the number of decimals used to get its user representation. For example, if `decimals` equals `2`, a balance of `505` tokens should be displayed to a user as `5.05` (`505 / 10 ** 2`). Tokens usually opt for a value of 18, imitating the relationship between Ether and Wei. This is the default value returned by this function, unless it's overridden. NOTE: This information is only used for _display_ purposes: it in no way affects any of the arithmetic of the contract, including {IERC20-balanceOf} and {IERC20-transfer}."
      },
      "name()": {
        "details": "Returns the name of the token."
      },
      "symbol()": {
        "details": "Returns the symbol of the token, usually a shorter version of the name."
      },
      "totalSupply()": {
        "details": "See {IERC20-totalSupply}."
      },
      "transfer(address,uint256)": {
        "details": "See {IERC20-transfer}. Requirements: - `to` cannot be the zero address. - the caller must have a balance of at least `value`."
      },
      "transferFrom(address,address,uint256)": {
        "details": "See {IERC20-transferFrom}. Emits an {Approval} event indicating the updated allowance. This is not required by the EIP. See the note at the beginning of {ERC20}. NOTE: Does not update the allowance if the current allowance is the maximum `uint256`. Requirements: - `from` and `to` cannot be the zero address. - `from` must have a balance of at least `value`. - the caller must have allowance for ``from``'s tokens of at least `value`."
      }
    },
    "version": 1
  },
  "userdoc": {
    "kind": "user",
    "methods": {},
    "version": 1
  },
  "storageLayout": {
    "storage": [
      {
        "astId": 159,
        "contract": "contracts/CreateToken.sol:MyToken",
        "label": "_balances",
        "offset": 0,
        "slot": "0",
        "type": "t_mapping(t_address,t_uint256)"
      },
      {
        "astId": 165,
        "contract": "contracts/CreateToken.sol:MyToken",
        "label": "_allowances",
        "offset": 0,
        "slot": "1",
        "type": "t_mapping(t_address,t_mapping(t_address,t_uint256))"
      },
      {
        "astId": 167,
        "contract": "contracts/CreateToken.sol:MyToken",
        "label": "_totalSupply",
        "offset": 0,
        "slot": "2",
        "type": "t_uint256"
      },
      {
        "astId": 169,
        "contract": "contracts/CreateToken.sol:MyToken",
        "label": "_name",
        "offset": 0,
        "slot": "3",
        "type": "t_string_storage"
      },
      {
        "astId": 171,
        "contract": "contracts/CreateToken.sol:MyToken",
        "label": "_symbol",
        "offset": 0,
        "slot": "4",
        "type": "t_string_storage"
      }
    ],
    "types": {
      "t_address": {
        "encoding": "inplace",
        "label": "address",
        "numberOfBytes": "20"
      },
      "t_mapping(t_address,t_mapping(t_address,t_uint256))": {
        "encoding": "mapping",
        "key": "t_address",
        "label": "mapping(address => mapping(address => uint256))",
        "numberOfBytes": "32",
        "value": "t_mapping(t_address,t_uint256)"
      },
      "t_mapping(t_address,t_uint256)": {
        "encoding": "mapping",
        "key": "t_address",
        "label": "mapping(address => uint256)",
        "numberOfBytes": "32",
        "value": "t_uint256"
      },
      "t_string_storage": {
        "encoding": "bytes",
        "label": "string",
        "numberOfBytes": "32"
      },
      "t_uint256": {
        "encoding": "inplace",
        "label": "uint256",
        "numberOfBytes": "32"
      }
    }
  }
}